:10000000F9C0000028C1000026C1000024C1000082
:1000100022C1000020C100001EC100001CC1000060
:100020001AC1000018C1000016C1000014C1000070
:1000300012C1000010C100000EC100000CC1000080
:100040000AC100000C94641406C1000004C1000041
:100050000C94921000C10000FEC000000C947116B8
:10006000FAC000000C9416190C944C19F4C000004E
:10007000F2C00000F0C00000EEC00000ECC00000C4
:100080000C949114E8C00000E6C00000E4C0000039
:100090000C94A2190C94D819DEC00000DCC000003A
:1000A000DAC00000D8C000000C94BE14D4C0000018
:1000B000D2C00000D0C00000CEC000000C94EB14F1
:1000C000CAC00000C8C00000C6C000000C942E1AB0
:1000D0000C94641AC0C000000C94BA1A0C94F01A64
:1000E000BAC0000000000A0B02090C0D0E0807033D
:1000F00004010000000000000000000000000000FB
:1001000000000000000000000000000000000000EF
:1001100012111000000000000000000000000000AC
:100120000000000000000000000001021020200874
:100130000810204010204080020102010804020142
:1001400001020408102040808040201008040201B1
:10015000800402018040201008040201080402010A
:100160000102040810204080010204081020408091
:1001700005050505070508080808020202020A0A23
:100180000808040404040101010101010101030341
:10019000030303030303040707070C0C0C0C0C0CEC
:1001A0000C0C0202020206060606060606060B0BE9
:1001B0000B0B0B0B0B0B00002200250028002B0063
:1001C0002E003100340002010000050108010B017E
:1001D00000002100240027002A002D0030003300F9
:1001E00001010000040107010A013E017519011A0D
:1001F0008D1A191B11241FBECFEFD1E2DEBFCDBF78
:1002000000E00CBF1CE1A0E0B2E0ECE5F8E300E0A8
:100210000BBF02C007900D92A43BB107D9F720E2B3
:10022000A4EBBCE101C01D92A537B207E1F710E0D5
:10023000CAEFD0E000E006C021970109802FFE013F
:100240000E940B1CC53FD10780E00807A9F70E9458
:10025000F9100C942C1CD4CE70E023E0829FC001D6
:1002600011248C54934E0C94DC1570E023E0829F93
:10027000C00111248C54934E0C94181684EB9CE10D
:100280000E94181587EB9CE10C941815CF92DF9211
:10029000EF92FF926B017C019F7720E030E040E815
:1002A00059E50E94A81187FF2BC020E030E040E014
:1002B0005FE3C701B6010E94451387FD0EC020E031
:1002C00030E040E05FE3C701B6010E943111FF90CA
:1002D000EF90DF90CF900C947D1220E030E040E072
:1002E0005FEBC701B6010E944513181684F420E0A5
:1002F00030E0A901C701B6010E9449136B017C01DE
:10030000C701B601FF90EF90DF90CF90089520E0F5
:1003100030E040E05FE3C701B6010E943011FF907A
:10032000EF90DF90CF900C9495112F923F924F92C7
:100330005F926F927F928F929F92AF92BF92CF9275
:10034000DF92EF92FF920F931F93CF93DF93CDB77E
:10035000DEB72C970FB6F894DEBF0FBECDBF00916D
:10036000E51F1091E61F6090D91F7090DA1F609111
:10037000C01C7091C11C8091C21C9091C31C0E9432
:10038000401220E030E040E85FE40E9449136B0136
:100390007C016091BC1C7091BD1C8091BE1C909131
:1003A000BF1C0E9440129B01AC01C701B6010E9414
:1003B00031112AE037ED43E25CE30E9449136B01FF
:1003C0007C01AC019B01D3016D917D918D919C913C
:1003D0000E94451387FD01C0E1C7A7019601F30103
:1003E000E85EFE4F60817181828193810E94A81135
:1003F00018160CF0D6C7E0912920F0912A20FA8334
:10040000E9835F01AA0CBB1CAA0CBB1C43018A0C2C
:100410009B1CA7019601D4016D917D918D919C91BA
:100420000E944513B4E0AB0EB11CA60CB71C181605
:100430000CF0A8C7F4E08F1A9108A7019601D40127
:1004400014966D917D918D919C9117970E94451303
:1004500018160CF48CC789819A8190932A20809376
:100460002920880F991F880F991F9A838983FC017F
:10047000E60DF71D80809180A280B3802C0194E06E
:10048000490E511CF301E40DF51D80819181A2817B
:10049000B3818D839E83AF83B8879C01AD01C50175
:1004A000B4010E94A811811189C7A5019401C70157
:1004B000B6010E94A81187FF79C7A981BA81A00F50
:1004C000B11FBA83A9838D919D910D90BC91A02DF0
:1004D0008093432090934420A0934520B0934620DE
:1004E0000091E71F1091E81F6090DB1F7090DC1FE8
:1004F000A7019601D3016D917D918D919C910E94F0
:10050000451387FD01C0CBC7A7019601F301E85E43
:10051000FE4F60817181828193810E94A81118161B
:100520000CF0C0C7E0912B20F0912C20FA83E983D6
:100530005F01AA0CBB1CAA0CBB1C43018A0C9B1CB0
:10054000A7019601D4016D917D918D919C910E949E
:100550004513B4E0AB0EB11CA60CB71C18160CF07A
:1005600092C7F4E08F1A9108A7019601D40114965E
:100570006D917D918D919C9117970E94451318164E
:100580000CF476C789819A8190932C2080932B203C
:10059000880F991F880F991F9A838983FC01E60DA4
:1005A000F71D80809180A280B3802C0194E0490ED9
:1005B000511CF301E40DF51D80819181A281B3816D
:1005C0008D839E83AF83B8879C01AD01C501B401C3
:1005D0000E94A811811173C7A5019401C701B6013A
:1005E0000E94A81187FF63C7A981BA81A00FB11F1C
:1005F000BA83A9838D919D910D90BC91A02D80937C
:10060000472090934820A0934920B0934A2000911E
:10061000E91F1091EA1F6090DD1F7090DE1FA70197
:100620009601D3016D917D918D919C910E9445130E
:1006300087FFB6C7A7019601F301E85EFE4F608110
:100640007181828193810E94A81118160CF0ABC7AA
:10065000E0912D20F0912E20FA83E9835F01AA0C0E
:10066000BB1CAA0CBB1C43018A0C9B1CA701960156
:10067000D4016D917D918D919C910E944513B4E0C0
:10068000AB0EB11CA60CB71C18160CF07DC7F4E01D
:100690008F1A9108A7019601D40114966D917D914E
:1006A0008D919C9117970E94451318160CF461C701
:1006B00089819A8190932E2080932D20880F991FF5
:1006C000880F991F9A838983FC01E60DF71D8080AE
:1006D0009180A280B3802C0194E0490E511CF3015B
:1006E000E40DF51D80819181A281B3818D839E836C
:1006F000AF83B8879C01AD01C501B4010E94A81168
:1007000081115EC7A5019401C701B6010E94A8111D
:1007100087FF4EC7A981BA81A00FB11FBA83A983F1
:100720008D919D910D90BC91A02D80934B20909325
:100730004C20A0934D20B0934E200091EB1F1091C0
:10074000EC1F6090DF1F7090E01FA7019601D3019E
:100750006D917D918D919C910E94451387FFA1C75A
:10076000A7019601F301E85EFE4F608171818281ED
:1007700093810E94A81118160CF096C7E0912F20C3
:10078000F0913020FA83E9835F01AA0CBB1CAA0C0C
:10079000BB1C43018A0C9B1CA7019601D4016D91DF
:1007A0007D918D919C910E944513B4E0AB0EB11CDC
:1007B000A60CB71C18160CF068C7F4E08F1A910845
:1007C000A7019601D40114966D917D918D919C9114
:1007D00017970E94451318160CF44CC789819A810B
:1007E0009093302080932F20880F991F880F991F96
:1007F0009A838983FC01E60DF71D80809180A28099
:10080000B3802C0194E0490E511CF301E40DF51D59
:1008100080819181A281B3818D839E83AF83B887CC
:100820009C01AD01C501B4010E94A811811149C705
:10083000A5019401C701B6010E94A81187FF39C71D
:10084000A981BA81A00FB11FBA83A9838D919D910F
:100850000D90BC91A02D80934F2090935020A09399
:100860005120B09352200091ED1F1091EE1F609027
:10087000E11F7090E21FA7019601D3016D917D9158
:100880008D919C910E94451387FF8AC7A70196010D
:10089000F301E85EFE4F60817181828193810E9445
:1008A000A81118160CF07FC7E0913120F09132208A
:1008B000FA83E9835F01AA0CBB1CAA0CBB1C430191
:1008C0008A0C9B1CA7019601D4016D917D918D919D
:1008D0009C910E944513B4E0AB0EB11CA60CB71C52
:1008E00018160CF051C7F4E08F1A9108A701960171
:1008F000D40114966D917D918D919C9117970E94D2
:10090000451318160CF435C789819A8190933220CB
:1009100080933120880F991F880F991F9A838983AC
:10092000FC01E60DF71D80809180A280B3802C0130
:1009300094E0490E511CF301E40DF51D8081918175
:10094000A281B3818D839E83AF83B8879C01AD0163
:10095000C501B4010E94A811811132C7A5019401FB
:10096000C701B6010E94A81187FF22C7A981BA81D9
:10097000A00FB11FBA83A9838D919D910D90BC9159
:10098000A02D8093532090935420A0935520B09392
:1009900056202090EF1F3090F01F0091E31F109120
:1009A000E41FA7019601D8016D917D918D919C91D5
:1009B0000E94451387FF73C7A7019601F801E85EFF
:1009C000FE4F60817181828193810E94A811181667
:1009D0000CF068C7E0913320F0913420FA83E9836A
:1009E0005F01AA0CBB1CAA0CBB1C48018A0C9B1CF7
:1009F000A7019601D4016D917D918D919C910E94EA
:100A00004513B4E0AB0EB11CA00EB11E18160CF0CD
:100A10003AC7F4E08F1A9108A7019601D401149601
:100A20006D917D918D919C9117970E944513181699
:100A30000CF41EC789819A819093342080933320CF
:100A4000880F991F880F991F9A878987FC01E00FEB
:100A5000F11F408051806280738004969A8389835D
:100A6000FC01E00FF11F80819181A281B3818D8310
:100A70009E83AF83B8879C01AD01C301B2010E9480
:100A8000A81181111EC7A3019201C701B6010E94DE
:100A9000A81187FF0CC7A985BA85A20DB31DBA831B
:100AA000A9838D919D910D90BC91A02D809357208D
:100AB00090935820A0935920B0935A20C0904F2073
:100AC000D0905020E0905120F090522020E030E073
:100AD000A901C701B6010E94A81187FD4AC720E0FD
:100AE00030E044E353E4C701B6010E94451364EBD0
:100AF0001816DCF0C701B601C9DB6B017C0120E0F0
:100B000030E040E853E40E94A8116FEF87FF0DC06A
:100B100020E030E0A901C701B6010E94451387FD1E
:100B200028C7C701B6010E94141280E09EDB4090E6
:100B3000092050900A206090FD1F7090FE1F609168
:100B4000C01C7091C11C8091C21C9091C31C0E945A
:100B5000401220E030E040E85FE40E9449136B015E
:100B60007C016091BC1C7091BD1C8091BE1C909159
:100B7000BF1C0E9440129B01AC01C701B6010E943C
:100B800031112AE037ED43E25CE30E9449136B0127
:100B90007C01AC019B01F3016081718182819381B1
:100BA0000E94451387FFFEC6A7019601F301E85E88
:100BB000FE4F60817181828193810E94A811181675
:100BC0000CF0F3C680913520909136209A8389836A
:100BD0008C01000F111F000F111F5301A00EB11E39
:100BE000A7019601D5016D917D918D919C910E94F7
:100BF00045130C5F1F4F060D171D18160CF0C6C6C7
:100C0000F4E0AF1AB108A7019601D50114966D91D1
:100C10007D918D919C9117970E94451318160CF4A5
:100C2000AAC689819A819093362080933520880FB7
:100C3000991F880F991F9A838983FC01E60DF71D80
:100C400080809180A280B3808C010C5F1F4FF301E4
:100C5000E00FF11F80819181A281B3818D839E83FA
:100C6000AF83B8879C01AD01C501B4010E94A811F2
:100C70008111A8C6A5019401C701B6010E94A8115F
:100C800087FF98C6A981BA81A40DB51DBA83A9832F
:100C90008D919D910D90BC91A02D80935B209093A0
:100CA0005C20A0935D20B0935E2040900B2050907C
:100CB0000C206090FF1F70900020A7019601D301C7
:100CC0006D917D918D919C910E94451387FFE9C69E
:100CD000A7019601F301E85EFE4F60817181828178
:100CE00093810E94A81118160CF0DEC6E0913720FF
:100CF000F0913820FA83E9838F01000F111F000F54
:100D0000111F5301A00EB11EA7019601D5016D91CF
:100D10007D918D919C910E9445130C5F1F4F060D94
:100D2000171D18160CF0B1C6F4E0AF1AB108A701F0
:100D30009601D50114966D917D918D919C91179797
:100D40000E94451318160CF495C689819A819093D8
:100D5000382080933720880F991F880F991F9A8316
:100D60008983FC01E60DF71D80809180A280B3800D
:100D70008C010C5F1F4FF301E00FF11F8081918107
:100D8000A281B3818D839E83AF83B8879C01AD011F
:100D9000C501B4010E94A811811193C6A501940157
:100DA000C701B6010E94A81187FF83C6A981BA8135
:100DB000A40DB51DBA83A9838D919D910D90BC9111
:100DC000A02D80935F2090936020A0936120B0932A
:100DD000622040900D2050900E2060900120709075
:100DE0000220A7019601D3016D917D918D919C9177
:100DF0000E94451387FFD4C6A7019601F301E85E60
:100E0000FE4F60817181828193810E94A811181622
:100E10000CF0C9C6E0913920F0913A20FA83E983B9
:100E20008F01000F111F000F111F5301A00EB11EE3
:100E3000A7019601D5016D917D918D919C910E94A4
:100E400045130C5F1F4F060D171D18160CF09CC69E
:100E5000F4E0AF1AB108A7019601D50114966D917F
:100E60007D918D919C9117970E94451318160CF453
:100E700080C689819A8190933A2080933920880F87
:100E8000991F880F991F9A838983FC01E60DF71D2E
:100E900080809180A280B3808C010C5F1F4FF30192
:100EA000E00FF11F80819181A281B3818D839E83A8
:100EB000AF83B8879C01AD01C501B4010E94A811A0
:100EC00081117EC6A5019401C701B6010E94A81137
:100ED00087FF6EC6A981BA81A40DB51DBA83A98307
:100EE0008D919D910D90BC91A02D80936320909346
:100EF0006420A0936520B093662040900F2050900E
:100F000010206090032070900420A7019601D30167
:100F10006D917D918D919C910E94451387FFBFC675
:100F2000A7019601F301E85EFE4F60817181828125
:100F300093810E94A81118160CF0B4C6E0913B20D2
:100F4000F0913C20FA83E9838F01000F111F000FFD
:100F5000111F5301A00EB11EA7019601D5016D917D
:100F60007D918D919C910E9445130C5F1F4F060D42
:100F7000171D18160CF087C6F4E0AF1AB108A701C8
:100F80009601D50114966D917D918D919C91179745
:100F90000E94451318160CF46BC689819A819093B0
:100FA0003C2080933B20880F991F880F991F9A83BC
:100FB0008983FC01E60DF71D80809180A280B380BB
:100FC0008C010C5F1F4FF301E00FF11F80819181B5
:100FD000A281B3818D839E83AF83B8879C01AD01CD
:100FE000C501B4010E94A811811169C6A50194012F
:100FF000C701B6010E94A81187FF59C6A981BA810D
:10100000A40DB51DBA83A9838D919D910D90BC91BE
:10101000A02D8093672090936820A0936920B093BF
:101020006A2040901120509012206090052070900E
:101030000620A7019601D3016D917D918D919C9120
:101040000E94451387FFAAC6A7019601F301E85E37
:10105000FE4F60817181828193810E94A8111816D0
:101060000CF09FC6E0913D20F0913E20FA83E98389
:101070008F01000F111F000F111F5301A00EB11E91
:10108000A7019601D5016D917D918D919C910E9452
:1010900045130C5F1F4F060D171D18160CF072C676
:1010A000F4E0AF1AB108A7019601D50114966D912D
:1010B0007D918D919C9117970E94451318160CF401
:1010C00056C689819A8190933E2080933D20880F57
:1010D000991F880F991F9A838983FC01E60DF71DDC
:1010E00080809180A280B3808C010C5F1F4FF30140
:1010F000E00FF11F80819181A281B3818D839E8356
:10110000AF83B8879C01AD01C501B4010E94A8114D
:10111000811154C6A5019401C701B6010E94A8110E
:1011200087FF44C6A981BA81A40DB51DBA83A983DE
:101130008D919D910D90BC91A02D80936B209093EB
:101140006C20A0936D20B0936E20209013203090DF
:1011500014208090072090900820A7019601D401C8
:101160006D917D918D919C910E94451387FF95C64D
:10117000A7019601F401E85EFE4F608171818281D2
:1011800093810E94A81118160CF08AC6E0913F20A6
:10119000F0914020FA83E9838F01000F111F000FA7
:1011A000111F5401A00EB11EA7019601D5016D912A
:1011B0007D918D919C910E9445130C5F1F4F080DEE
:1011C000191D18160CF05DC6F4E0AF1AB108A7019E
:1011D0009601D50114966D917D918D919C911797F3
:1011E0000E94451318160CF441C689819A81909388
:1011F000402080933F20880F991F880F991F9E835E
:101200008D83FC01E80DF91D408051806280738060
:101210008C010C5F1F4FF401E00FF11F8081918161
:10122000A281B38189839A83AB83BC839C01AD0186
:10123000C301B2010E94A81181113FC6A30192010E
:10124000C701B6010E94A81187FF2FC6AD81BE81DC
:10125000A20DB31DBA83A9838D919D910D90BC9170
:10126000A02D80936F2090937020A0937120B09355
:101270007220C0906720D0906820E0906920F090A4
:101280006A2020E030E0A901C701B6010E94A81140
:1012900087FD69C620E030E044E353E4C701B601AE
:1012A0000E94451364EB1816E4F0C701B6010E94D2
:1012B00046016B017C0120E030E040E853E40E94ED
:1012C000A8116FEF87FF0DC020E030E0A901C70132
:1012D000B6010E94451387FD46C6C701B6010E94AC
:1012E000141281E00E9435018091BC1C9091BD1CBC
:1012F000A091BE1CB091BF1C0196A11DB11D809391
:10130000BC1C9093BD1CA093BE1CB093BF1C892B2A
:101310008A2B8B2B99F48091C01C9091C11CA091B9
:10132000C21CB091C31C0196A11DB11D8093C01CAD
:101330009093C11CA093C21CB093C31C2C960FB6F3
:10134000F894DEBF0FBECDBFDF91CF911F910F91FB
:10135000FF90EF90DF90CF90BF90AF909F908F90D5
:101360007F906F905F904F903F902F900895E9810C
:10137000FA813197FA83E9835DC8E981FA81319670
:10138000FA83E983D5016D917D918D919D915D01E8
:10139000A7019601DDD7181684F75DC81A82198255
:1013A0005AC8E5E4F0E0FA83E98355C8040D151D39
:1013B000F80180819181A281B3818AC889819A8153
:1013C000800F911FDC018D919D910D90BC91A02DFE
:1013D00089839A83AB83BC83040D151DF80140807B
:1013E000518062807380A3019201BC01CD01B0D70E
:1013F0008823C9F1A70196016D817E818F8198852F
:101400002FD769877A878B879C87A50194016D8187
:101410007E818F81988524D79B01AC0169857A856F
:101420008B859C8599D74B015C01AC019B0160E0E9
:1014300070E080E89FE314D7A30192010E94491352
:101440002B013C0129813A814B815C81C501B401AA
:101450000E9449139B01AC01C301B20102D7698309
:101460007A838B839C8389819A81AB81BC8130C8CC
:10147000E981FA813197FA83E98373C8E981FA81B6
:101480003196FA83E983D5016D917D918D919D917E
:101490005D01A70196015CD7181684F773C81A82FC
:1014A000198270C8E5E4F0E0FA83E9836BC8040DA3
:1014B000151DF80180819181A281B381A0C8898125
:1014C0009A81800F911FDC018D919D910D90BC91AF
:1014D000A02D89839A83AB83BC83040D151DF8016D
:1014E0004080518062807380A3019201BC01CD01D4
:1014F0002FD78823C9F1A70196016D817E818F8145
:101500009885AED669877A878B879C87A5019401D9
:101510006D817E818F819885A3D69B01AC01698501
:101520007A858B859C8518D74B015C01AC019B01AA
:1015300060E070E080E89FE393D6A30192010E94EF
:1015400049132B013C0129813A814B815C81C50102
:10155000B4010E9449139B01AC01C301B20181D6C1
:1015600069837A838B839C8389819A81AB81BC81D7
:1015700046C8E981FA813197FA83E98388C8E9810D
:10158000FA813196FA83E983D5016D917D918D9130
:101590009D915D01A7019601DBD6181684F788C8D6
:1015A0001A82198285C8E5E4F0E0FA83E98380C8ED
:1015B000040D151DF80180819181A281B381B5C808
:1015C00089819A81800F911FDC018D919D910D90F1
:1015D000BC91A02D89839A83AB83BC83040D151D18
:1015E000F8014080518062807380A3019201BC01A8
:1015F000CD01AED68823C9F1A70196016D817E8108
:101600008F8198852DD669877A878B879C87A501DE
:1016100094016D817E818F81988522D69B01AC01DA
:1016200069857A858B859C8597D64B015C01AC01D9
:101630009B0160E070E080E89FE312D6A301920175
:101640000E9449132B013C0129813A814B815C8125
:10165000C501B4010E9449139B01AC01C301B20151
:1016600000D669837A838B839C8389819A81AB813D
:10167000BC815BC8E981FA813197FA83E9839DC80F
:10168000E981FA813196FA83E983D5016D917D91E3
:101690008D919D915D01A70196015AD6181684F788
:1016A0009DC81A8219829AC8E5E4F0E0FA83E983BA
:1016B00095C8040D151DF80180819181A281B38127
:1016C000CAC889819A81800F911FDC018D919D91FB
:1016D0000D90BC91A02D89839A83AB83BC83040DAC
:1016E000151DF8014080518062807380A301920132
:1016F000BC01CD012DD68823B9F1A70196016D81DA
:101700007E818F819885ACD569877A878B879C8706
:10171000A50194016D817E818F819885A1D59B0162
:10172000AC0169857A858B859C8516D64B015C0159
:10173000AC019B0160E070E080E89FE391D5A301DC
:101740009201A7D72B013C0129813A814B815C8111
:10175000C501B4019ED79B01AC01C301B20181D583
:1017600069837A838B839C8389819A81AB81BC81D5
:1017700072C8E981FA813197FA83E983B4C8E981B3
:10178000FA813196FA83E983D5016D917D918D912E
:101790009D915D01A7019601DBD5181684F7B4C8A9
:1017A0001A821982B1C8E5E4F0E0FA83E983ACC893
:1017B000040D151DF80180819181A281B381E1C8DA
:1017C00089819A81800F911FDC018D919D910D90EF
:1017D000BC91A02D89839A83AB83BC83040D151D16
:1017E000F8014080518062807380A3019201BC01A6
:1017F000CD01AED58823B9F1A70196016D817E8117
:101800008F8198852DD569877A878B879C87A501DD
:1018100094016D817E818F81988522D59B01AC01D9
:1018200069857A858B859C8597D54B015C01AC01D8
:101830009B0160E070E080E89FE312D5A301920174
:1018400028D72B013C0129813A814B815C81C5015C
:10185000B4011FD79B01AC01C301B20102D569835A
:101860007A838B839C8389819A81AB81BC8189C86F
:10187000E981FA813197FA83E983CBC8E981FA815A
:101880003196FA83E983D5016D917D918D919D917A
:101890005D01A70196015CD5181684F7CBC81A82A2
:1018A0001982C8C8E5E4F0E0FA83E983C3C8E98196
:1018B000FA812E0E3F1EF10180819181A281B381B8
:1018C000F5C889859A85820D931DDC018D909D90C8
:1018D000AD90BC90E981FA812E0E3F1ED1018D9111
:1018E0009D910D90BC91A02D89839A83AB83BC837D
:1018F0009C01AD01C501B4012BD5882389F1A70155
:1019000096016D817E818F819885AAD46B017C01BF
:10191000A30192016D817E818F819885A1D49B0165
:10192000AC01C701B60118D56B017C01AC019B016C
:1019300060E070E080E89FE393D429813A814B8195
:101940005C81A7D62B013C01A5019401C701B6011A
:10195000A0D69B01AC01C301B20183D44B015C0151
:101960008092572090925820A0925920B0925A20ED
:10197000A5C860E0DAC8E981FA813197FA83E98382
:101980003FC9E981FA813196FA83E983D8016D91E3
:101990007D918D919D918D01A7019601D9D4181645
:1019A00084F73FC91A8219823CC9E5E4F0E0FA8362
:1019B000E98337C9400E511EF20180819181A281D5
:1019C000B3816BC989819A81840D951DDC018D914C
:1019D0009D910D90BC91A02D89839A83AB83BC838C
:1019E000400E511EF2014080518062807380A3013D
:1019F0009201BC01CD01ACD48823B9F1A7019601B5
:101A00006D817E818F8198852BD469877A878B87BA
:101A10009C87A50194016D817E818F81988520D45A
:101A20009B01AC0169857A858B859C8595D44B019A
:101A30005C01AC019B0160E070E080E89FE310D4A2
:101A4000A301920126D62B013C0129813A814B81C9
:101A50005C81C501B4011DD69B01AC01C301B2017B
:101A600000D469837A838B839C8389819A81AB813B
:101A7000BC8113C9E981FA813197FA83E98354C99A
:101A8000E981FA813196FA83E983D8016D917D91DC
:101A90008D919D918D01A70196015AD4181684F756
:101AA00054C91A82198251C9E5E4F0E0FA83E98346
:101AB0004CC9400E511EF20180819181A281B381F7
:101AC00080C989819A81840D951DDC018D919D913C
:101AD0000D90BC91A02D89839A83AB83BC83400E6B
:101AE000511EF2014080518062807380A3019201F7
:101AF000BC01CD012DD48823B9F1A70196016D81D8
:101B00007E818F819885ACD369877A878B879C8704
:101B1000A50194016D817E818F819885A1D39B0160
:101B2000AC0169857A858B859C8516D44B015C0157
:101B3000AC019B0160E070E080E89FE391D3A301DA
:101B40009201A7D52B013C0129813A814B815C810F
:101B5000C501B4019ED59B01AC01C301B20181D383
:101B600069837A838B839C8389819A81AB81BC81D1
:101B700028C9E981FA813197FA83E98369C9E98142
:101B8000FA813196FA83E983D8016D917D918D9127
:101B90009D918D01A7019601DBD3181684F769C9C1
:101BA0001A82198266C9E5E4F0E0FA83E98361C923
:101BB000400E511EF20180819181A281B38195C9AD
:101BC00089819A81840D951DDC018D919D910D90E7
:101BD000BC91A02D89839A83AB83BC83400E511E98
:101BE000F2014080518062807380A3019201BC01A8
:101BF000CD01AED38823B9F1A70196016D817E8115
:101C00008F8198852DD369877A878B879C87A501DB
:101C100094016D817E818F81988522D39B01AC01D7
:101C200069857A858B859C8597D34B015C01AC01D6
:101C30009B0160E070E080E89FE312D3A301920172
:101C400028D52B013C0129813A814B815C81C5015A
:101C5000B4011FD59B01AC01C301B20102D369835A
:101C60007A838B839C8389819A81AB81BC813DC9B6
:101C7000E981FA813197FA83E9837EC9E981FA81A2
:101C80003196FA83E983D8016D917D918D919D9173
:101C90008D01A70196015CD3181684F77EC91A82BC
:101CA00019827BC9E5E4F0E0FA83E98376C9400E46
:101CB000511EF20180819181A281B381AAC98981DB
:101CC0009A81840D951DDC018D919D910D90BC91A3
:101CD000A02D89839A83AB83BC83400E511EF201F1
:101CE0004080518062807380A3019201BC01CD01CC
:101CF0002FD38823B9F1A70196016D817E818F8151
:101D00009885AED269877A878B879C87A5019401D5
:101D10006D817E818F819885A3D29B01AC016985FD
:101D20007A858B859C8518D34B015C01AC019B01A6
:101D300060E070E080E89FE393D2A3019201A9D410
:101D40002B013C0129813A814B815C81C501B401A1
:101D5000A0D49B01AC01C301B20183D269837A8311
:101D60008B839C8389819A81AB81BC8152C9E98133
:101D7000FA813197FA83E98393C9E981FA8131962F
:101D8000FA83E983D8016D917D918D919D918D01AB
:101D9000A7019601DDD2181684F793C91A82198219
:101DA00090C9E5E4F0E0FA83E9838BC9400E511E47
:101DB000F20180819181A281B381BFC989819A8119
:101DC000840D951DDC018D919D910D90BC91A02DF0
:101DD00089839A83AB83BC83400E511EF2014080FD
:101DE000518062807380A3019201BC01CD01B0D209
:101DF0008823B9F1A70196016D817E818F81988535
:101E00002FD269877A878B879C87A50194016D8182
:101E10007E818F81988524D29B01AC0169857A856A
:101E20008B859C8599D24B015C01AC019B0160E0E4
:101E300070E080E89FE314D2A30192012AD42B0121
:101E40003C0129813A814B815C81C501B40121D4D7
:101E50009B01AC01C301B20104D269837A838B83F5
:101E60009C8389819A81AB81BC8167C9E981FA81B0
:101E70003197FA83E983A8C9E981FA813196FA8317
:101E8000E983D8016D917D918D919D918D01A7017F
:101E900096015ED2181684F7A8C91A821982A5C9BC
:101EA000E5E4F0E0FA83E983A0C9200E311EF101D8
:101EB00080819181A281B381D4C98D819E81820D5F
:101EC000931DDC018D909D90AD90BC90200E311E35
:101ED000D1018D919D910D90BC91A02D8D839E83FC
:101EE000AF83B8879C01AD01C501B40131D288230D
:101EF00089F1A701960169817A818B819C81B0D19A
:101F00006B017C01A301920169817A818B819C81A3
:101F1000A7D19B01AC01C701B6011ED26B017C01A8
:101F2000AC019B0160E070E080E89FE399D12D81D6
:101F30003E814F815885ADD32B013C01A501940111
:101F4000C701B601A6D39B01AC01C301B20189D17F
:101F50004B015C0180926F2090927020A0927120C2
:101F6000B092722086C960E0BCC9CF92DF92EF9236
:101F7000FF921F93CF93DF93EAEBFCE18AE0DF014E
:101F80001D928A95E9F7E1EFFFE182E5DF011D92FD
:101F90008A95E9F7C9EDDFE184E89BE199838883BD
:101FA00088E69AE19D878C878CE499E19B838A83FC
:101FB00080E398E19F878E8784E197E19D838C83FE
:101FC00088EF95E1998B888B8CED94E19F838E83CC
:101FD00080EC93E19B8B8A8B84EA92E199878887D6
:101FE00088E891E19D8B8C8B8CE690E19B878A87BA
:101FF00080E59FE09F8B8E8B11E010934220C12CD7
:10200000D12C7601C394C0922520D0922620E09254
:102010002720F09228206BE080E00E942C0184E3CE
:102020009EE09DA38CA388E19DE099AB88AB8CEFEB
:102030009BE09FA38EA380EE9AE09BAB8AAB84ECDF
:1020400099E099A788A788EA98E09DAB8CAB8CE8CB
:1020500097E09BA78AA780E796E09FAB8EAB84E5CD
:1020600095E09DA78CA788E394E099AF88AF8CE1B9
:1020700093E09FA78EA780E092E09BAF8AAF10927B
:10208000362010923520109238201092372010926E
:102090003A201092392010923C2010923B2010924E
:1020A0003E2010923D201092402010923F2010932D
:1020B0004120C0922120D0922220E0922320F09251
:1020C000242065E081E0DF91CF911F91FF90EF9098
:1020D000DF90CF900C942C01089540E855E260E029
:1020E00070E090E080E000C08130910579F01CF450
:1020F000892B39F008958230910561F0039771F0D2
:10210000089526E085E69DE10C94B61826E082E06D
:102110009EE1FACF26E08FE99EE1F6CF26E08CE340
:102120009FE1F2CF1F920F920FB60F9211240BB6C0
:102130000F922F933F934F935F936F937F938F9360
:102140009F93AF93BF93EF93FF938FE89DEF90938F
:1021500085008093840034D0FF91EF91BF91AF91BF
:102160009F918F917F916F915F914F913F912F91AF
:102170000F900BBE0F900FBE0F901F9018958FE819
:102180009DEF9093850080938400AFE6B0E08C9142
:102190008E7F8C93E0E8F0E080818C7F8083E1E8A3
:1021A000F0E08081877E808380818460808380816D
:1021B0008C7F80838C9181608C93089581E0089559
:1021C0008091C41C91E0980F9093C41C882349F01F
:1021D00021E030E03093C61C2093C51C8093C41CC2
:1021E000089578940E949501F8948091C41C8150C0
:1021F000F5CFCF93DF931092742010927320BBD54C
:102200006CDFC091A01CD091A11C19821882ADDE98
:10221000F894B5DF81E028813981232B09F080E033
:10222000809373207894789480917320811107C0F3
:1022300053DFF89490E080E0DF91CF91089581E042
:1022400028813981232B09F480E0809374209091B8
:10225000742081E0911180E080937320AFDFE4CFA0
:102260005058BB27AA270ED0BFC1B0D130F0B5D18E
:1022700020F031F49F3F11F41EF4A5C10EF4E09557
:10228000E7FB72C1E92FC1D180F3BA176207730768
:102290008407950718F071F49EF5F0C10EF4E095EF
:1022A0000B2EBA2FA02D0B01B90190010C01CA0110
:1022B000A0011124FF27591B99F0593F50F4503EBB
:1022C00068F11A16F040A22F232F342F4427585FAD
:1022D000F3CF469537952795A795F0405395C9F7C5
:1022E0007EF41F16BA0B620B730B840BBAF091507D
:1022F000A1F0FF0FBB1F661F771F881FC2F70EC01C
:10230000BA0F621F731F841F48F4879577956795EE
:10231000B795F7959E3F08F0B3CF9395880F08F0D7
:102320009927EE0F97958795089591D180F09F3763
:1023300040F491110EF4A3C160E070E080E89FE3E7
:10234000089526F01B16611D711D811D13C12DC13D
:10235000E7D008F481E008950CD046C13ED140F0AA
:1023600035D130F021F45F3F19F0FEC0511187C123
:102370002AC14BD198F39923C9F35523B1F3951B87
:10238000550BBB27AA2762177307840738F09F5F96
:102390005F4F220F331F441FAA1FA9F333D00E2E05
:1023A0003AF0E0E830D091505040E695001CCAF772
:1023B00029D0FE2F27D0660F771F881FBB1F261737
:1023C00037074807AB07B0E809F0BB0B802DBF010A
:1023D000FF2793585F4F2AF09E3F510568F0C4C015
:1023E0004EC15F3FECF3983EDCF386957795679599
:1023F000B795F7959F5FC9F7880F911D96958795BB
:1024000097F90895E1E0660F771F881FBB1F6217D9
:1024100073078407BA0720F0621B730B840BBA0B97
:10242000EE1F88F7E0950895F8D088F09F5790F058
:10243000B92F9927B751A0F0D1F0660F771F881FE9
:10244000991F1AF0BA95C9F712C0B13081F016D1B0
:10245000B1E0089513C1672F782F8827B85F39F04E
:10246000B93FCCF3869577956795B395D9F73EF448
:1024700090958095709561957F4F8F4F9F4F0895F0
:10248000E89409C097FB3EF490958095709561950E
:102490007F4F8F4F9F4F9923A9F0F92F96E9BB27C4
:1024A0009395F695879577956795B795F111F8CF40
:1024B000FAF4BB0F11F460FF1BC06F5F7F4F8F4FAB
:1024C0009F4F16C0882311F096E911C0772321F0A1
:1024D0009EE8872F762F05C0662371F096E8862F39
:1024E00070E060E02AF09A95660F771F881FDAF790
:1024F000880F9695879597F90895A9D080F09F3712
:1025000040F491110EF0BBC060E070E080E89FEBFA
:10251000089526F41B16611D711D811D2BC045C039
:10252000990F0008550FAA0BE0E8FEEF16161706E4
:10253000E807F907C0F012161306E407F50798F04C
:10254000621B730B840B950B39F40A2661F0232B65
:10255000242B252B21F408950A2609F4A140A695E1
:102560008FEF811D811D089597F99F6780E870E0C6
:1025700060E00895882371F4772321F09850872B29
:10258000762F07C0662311F499270DC09051862B32
:1025900070E060E02AF09A95660F771F881FDAF7DF
:1025A000880F9695879597F908959F3F31F0915040
:1025B00020F4879577956795B795880F911D969527
:1025C000879597F908959FEF80EC089500240A9469
:1025D0001616170618060906089500240A941216FE
:1025E0001306140605060895092E0394000C11F431
:1025F000882352F0BB0F40F4BF2B11F460FF04C0DE
:102600006F5F7F4F8F4F9F4F089557FD9058440F36
:10261000551F59F05F3F71F04795880F97FB991F41
:1026200061F09F3F79F087950895121613061406FE
:10263000551FF2CF4695F1DF08C01616170618068B
:10264000991FF1CF86957105610508940895E5DF1E
:10265000A0F0BEE7B91788F4BB279F3860F41616C0
:10266000B11D672F782F8827985FF7CF86957795CC
:102670006795B11D93959639C8F30895E894BB27E3
:1026800066277727CB0197F908954ADF08F48FEF83
:1026900008950BD0A9CF9ADF28F09FDF18F095237B
:1026A00009F062CF90CF1124EACFAFDFA0F3959F5E
:1026B000D1F3950F50E0551F629FF001729FBB2729
:1026C000F00DB11D639FAA27F00DB11DAA1F649FD5
:1026D0006627B00DA11D661F829F2227B00DA11D88
:1026E000621F739FB00DA11D621F839FA00D611D0E
:1026F000221F749F3327A00D611D231F849F600D2F
:10270000211D822F762F6A2F11249F5750408AF067
:10271000E1F088234AF0EE0FFF1FBB1F661F771FF3
:10272000881F91505040A9F79E3F510570F01CCF73
:10273000A6CF5F3FECF3983EDCF3869577956795DF
:10274000B795F795E7959F5FC1F7FE2B880F911D11
:102750009695879597F90895CF92DF92EF92FF9221
:102760000F931F93CF93DF936B017A01EC01C85352
:10277000D34E28813CE0389F8001399F100D1124F1
:1027800027FF24C0FB011182108288818F5F88831C
:1027900088819801280F311D87FD3A95C901209144
:1027A000C71CF6012817190629F024F088818C30FF
:1027B0000CF43BC080819181049680349C4908F4DC
:1027C00073C0F60180819181049670C08881980160
:1027D000280F311D87FD3A95C9012091C71C281784
:1027E000190699F294F28881A801480F511D87FDBE
:1027F0005A95FA01EE0FFF1FE40FF51FE453F34E55
:10280000808186FFC2CF8881F801E80FF11D87FD26
:10281000FA95CF01EE0FFF1FE80FF91FE453F34EB7
:10282000808160E08F73ABD3B0CF808191812881AC
:10283000A801420F511D27FD5A959A01FA01EE0F8A
:10284000FF1FE20FF31FE453F34E21813281820F09
:10285000931FF7019183808388819801280F311D90
:1028600087FD3A95F901EE0FFF1FE20FF31FE453C6
:10287000F34E808186FF1FC08881080F111D87FDE0
:102880001A95F801EE0FFF1FE00FF11FE453F34E0E
:10289000808161E08F73DF91CF911F910F91FF9045
:1028A000EF90DF90CF906BC380E49CE9F7019183B8
:1028B00080838FEF8883DF91CF911F910F91FF90DD
:1028C000EF90DF90CF9008951F920F920FB60F9266
:1028D00011240BB60F922F933F934F935F936F93F7
:1028E0007F938F939F93AF93BF93EF93FF9348E8AA
:1028F00050E064E870E081E090E02EDFFF91EF911E
:10290000BF91AF919F918F917F916F915F914F9107
:102910003F912F910F900BBE0F900FBE0F901F9005
:1029200018951F920F920FB60F9211240BB60F92AB
:102930002F933F934F935F936F937F938F939F93C7
:10294000AF93BF93EF93FF9348E950E064E970E0E1
:1029500082E090E001DFFF91EF91BF91AF919F91F5
:102960008F917F916F915F914F913F912F910F9038
:102970000BBE0F900FBE0F901F9018951F920F92D5
:102980000FB60F9211240BB60F922F933F934F93D4
:102990005F936F937F938F939F93AF93BF93EF93C7
:1029A000FF9348EA50E064EA70E083E090E0D4DE10
:1029B000FF91EF91BF91AF919F918F917F916F9117
:1029C0005F914F913F912F910F900BBE0F900FBED3
:1029D0000F901F9018951F920F920FB60F9211240F
:1029E0000BB60F922F933F934F935F936F937F9309
:1029F0008F939F93AF93BF93EF93FF9348E251E080
:102A000064E271E090E080E0A7DEFF91EF91BF917A
:102A1000AF919F918F917F916F915F914F913F9176
:102A20002F910F900BBE0F900FBE0F901F90189517
:102A3000FC019091C71C903398F481E0890F80933A
:102A4000C71C9083892F90E0FC01EE0FFF1FE80F59
:102A5000F91FE453F34E88EB9BE092838183089542
:102A60008FEF80830895DF92EF92FF920F931F9371
:102A7000CF93DF93EC01D62E7A01890188818033D0
:102A800008F065C061E08D2D3ED28881282F30E0AE
:102A9000F901EE0FFF1FE20FF31FE453F34E9D2DDC
:102AA0009F736081607C692B608320E232E02E1985
:102AB0003F0937FF02C02D5F3F4F3595279535956C
:102AC0002795298320E639E0201B310B37FF02C010
:102AD0002D5F3F4F35952795359527952A832CE017
:102AE000622F4FD6829FB001112430E020E0AB016D
:102AF000420F531FFA01EE0FFF1FE40FF51FE453BF
:102B0000F34E908196FD16C02F5F3F4F2C3031055C
:102B100071F7813029F51092800082E08093810066
:102B20001092850010928400B19A80916F008260AB
:102B300080936F00E8818E2F90E0FC01EE0FFF1F65
:102B4000E80FF91FE453F34E80818064808388810D
:102B5000DF91CF911F910F91FF90EF90DF9008953B
:102B6000823061F410929000809391001092950051
:102B70001092940088BB80937100DCCF833069F49D
:102B80001092A00082E08093A1001092A500109204
:102B9000A40089BB80937200CDCF8111CBCF10925E
:102BA000200182E0809321011092250110922401DE
:102BB0008ABB80937300BECF20E639E040E252E04A
:102BC00052CFDC01EC91E03390F511968C91119786
:102BD00028E830E0281B310987FD3395220F331F89
:102BE000220F331F6217730784F012968C9128E529
:102BF00032E0281B310987FD3395220F331F220F46
:102C0000331F621773070CF49B0122503109220F06
:102C1000331F4FB7F8948E2F90E0FC01EE0FFF1F8B
:102C2000E80FF91FE453F34E328321834FBF089519
:102C3000AF92BF92CF92DF92EF92FF920F931F93CA
:102C4000CF93DF93EC01603282E078070CF03DC057
:102C5000653B710514F064EB70E0898148E8A42EAF
:102C6000B12CA81AB10887FDB394AA0CBB1CAA0CFE
:102C7000BB1C0B2C000CCC08DD0877FF02C070E0F9
:102C800060E0072E000C880B990B2A8108E512E002
:102C9000021B110927FD1395000F111F000F111FB3
:102CA000012E000C220B330B3F932F931F930F9396
:102CB00014EBE12EF12C00E010E020E030E0A9015F
:102CC00012D50F900F900F900F90CE01DF91CF9102
:102CD0001F910F91FF90EF90DF90CF90BF90AF903A
:102CE00070CF1F920F920FB60F9211242F933F9324
:102CF0008F939F93AF93BF9380915D1D90915E1DC5
:102D0000A0915F1DB091601D30915C1D23E0230FE9
:102D10002D3758F50196A11DB11D20935C1D8093A0
:102D20005D1D90935E1DA0935F1DB093601D80910B
:102D3000611D9091621DA091631DB091641D01966B
:102D4000A11DB11D8093611D9093621DA093631D11
:102D5000B093641DBF91AF919F918F913F912F913F
:102D60000F900FBE0F901F90189526E8230F029624
:102D7000A11DB11DD2CF789484B5826084BD84B585
:102D8000816084BD85B5826085BD85B5816085BD66
:102D9000EEE6F0E0808181608083E1E8F0E010827F
:102DA000808182608083808181608083E0E8F0E0C0
:102DB000808181608083E1EBF0E0808184608083AA
:102DC000E0EBF0E0808181608083E1E9F0E08081E8
:102DD00082608083808181608083E0E9F0E080818F
:102DE00081608083E1EAF0E080818260808380817D
:102DF00081608083E0EAF0E0808181608083E1E2AD
:102E0000F1E0808182608083808181608083E0E264
:102E1000F1E0808181608083EAE7F0E08081846076
:102E200080838081826080838081816080838081D3
:102E3000806880831092C10008958150823108F02B
:102E400059C0E82FF0E08827E85DF84E8F4FE3C4C3
:102E500048174C173A17401744177A174F1755174A
:102E600059175F17631767176D1771177A1775175B
:102E70007B177F17809180008F7780938000089563
:102E8000809180008F7DF9CF80918000877FF5CF82
:102E900084B58F7784BD089584B58F7DFBCF8091F5
:102EA000B0008F778093B00008958091B0008F7D3F
:102EB000F9CF809190008F77809390000895809152
:102EC00090008F7DF9CF80919000877FF5CF809122
:102ED000A0008F778093A00008958091A0008F7D3F
:102EE000F9CF8091A000877FF5CF809120018F7767
:102EF000809320010895809120018F7DF9CF8091EA
:102F00002001877FF5CFCF93DF9390E0FC01E65D52
:102F1000FE4F249180599E4FFC0184918823C9F073
:102F200090E0880F991FFC01E053FE4FA591B491EA
:102F3000FC01EA54FE4FC591D49161110DC09FB7B9
:102F4000F8948C91209582238C9388812823288360
:102F50009FBFDF91CF910895623051F49FB7F894ED
:102F60003C91822F809583238C93E8812E2BEFCF89
:102F70008FB7F894EC912E2B2C938FBFEACF1F9331
:102F8000CF93DF93282F30E0F901EC51FF4F84916C
:102F9000F901E65DFE4FD491F901E059FE4FC4916D
:102FA000CC23A1F0162F811148DFEC2FF0E0EE0FBB
:102FB000FF1FEA54FE4FA591B4918FB7F894EC919E
:102FC000111108C0D095DE23DC938FBFDF91CF9124
:102FD0001F910895DE2BF8CFFC01918D228D892F52
:102FE00090E0805C9F4F821B91098F739927089511
:102FF000FC01918D828D981731F0828DE80FF11DC3
:10300000858D90E008958FEF9FEF0895FC01918DDD
:10301000828D981761F0A28DAE0FBF2FB11D5D9606
:103020008C91928D9F5F9F73928F90E008958FEFA8
:103030009FEF0895FC01538D448D252F30E0842FA0
:1030400090E0821B930B541710F0CF9608950197D0
:103050000895FC01A48DA80FB92FB11DA35ABF4F2D
:103060002C91848D90E001968F739927848FA68987
:10307000B7892C93A089B1898C91837080648C93DB
:10308000938D848D981306C00288F389E02D80818A
:103090008F7D80830895CF93DF93EC01888D882303
:1030A000B1F0AA89BB89E889F9898C9185FD03C0B3
:1030B000808186FD0CC00FB607FCF7CF8C9185FF91
:1030C000F2CF808185FFEDCFCE01C3DFEACFDF9164
:1030D000CF910895EF92FF920F931F93CF93DF93B9
:1030E000EC0181E0888F9B8D8C8D98131AC0E88944
:1030F000F989808185FF15C09FB7F894EE89FF8913
:103100006083E889F98980818370806480839FBFB0
:1031100081E090E0DF91CF911F910F91FF90EF90B0
:103120000895F62E0B8D10E00F5F1F4F0F731127C0
:10313000E02E8C8D8E110BC00FB607FCFACFE889FC
:10314000F989808185FFF5CFCE0183DFF2CFEB8D4A
:10315000EC0FFD2FF11DE35AFF4FF0829FB7F8945B
:103160000B8FEA89FB8980818062D0CFCF92DF927A
:10317000EF92FF921F93CF93DF93EC016A017B01E3
:10318000122FE889F98982E08083C11481EED80684
:10319000E104F10499F060E079E08DE390E0A701AB
:1031A0009601FBD2215031094109510956954795A5
:1031B00037952795211580E1380790F0E889F9893E
:1031C000108260E874E88EE190E0A7019601E5D2F4
:1031D0002150310941095109569547953795279551
:1031E000EC85FD853083EE85FF852083188EEC8984
:1031F000FD891083EA89FB89808180618083EA8967
:10320000FB89808188608083EA89FB89808180686E
:103210008083EA89FB8980818F7D8083DF91CF91D4
:103220001F91FF90EF90DF90CF9008951F920F9223
:103230000FB60F9211240BB60F922F938F939F937B
:10324000EF93FF93E091751DF091761D8081E091E1
:103250007B1DF0917C1D82FD1DC0908180917E1DA3
:103260008F5F8F7320917F1D821741F0E0917E1D4B
:10327000F0E0EB59F24E958F80937E1DFF91EF9118
:103280009F918F912F910F900BBE0F900FBE0F90BB
:103290001F9018958081F2CF1F920F920FB60F9258
:1032A00011240BB60F922F933F934F935F936F931D
:1032B0007F938F939F93AF93BF93EF93FF9385E695
:1032C0009DE1C7DEFF91EF91BF91AF919F918F91EB
:1032D0007F916F915F914F913F912F910F900BBE16
:1032E0000F900FBE0F901F901895E5E6FDE1138239
:1032F000128288EE93E0A0E0B0E084839583A683F9
:10330000B78386EA9CE19183808385EC90E0958782
:10331000848784EC90E09787868780EC90E0918B9F
:10332000808B81EC90E0938B828B82EC90E0958B8C
:10333000848B86EC90E0978B868B118E128E138E89
:10334000148E08951F920F920FB60F9211240BB690
:103350000F922F938F939F93EF93FF93E091121E01
:10336000F091131E8081E091181EF091191E82FDCC
:103370001DC0908180911B1E8F5F8F7320911C1E3A
:10338000821741F0E0911B1EF0E0EE5FF14E958F49
:1033900080931B1EFF91EF919F918F912F910F9022
:1033A0000BBE0F900FBE0F901F9018958081F2CF2B
:1033B0001F920F920FB60F9211240BB60F922F93FC
:1033C0003F934F935F936F937F938F939F93AF93AD
:1033D000BF93EF93FF9382E09EE13BDEFF91EF917D
:1033E000BF91AF919F918F917F916F915F914F911D
:1033F0003F912F910F900BBE0F900FBE0F901F901B
:103400001895E2E0FEE11382128288EE93E0A0E0DC
:10341000B0E084839583A683B78386EA9CE1918399
:1034200080838DEC90E0958784878CEC90E0978783
:10343000868788EC90E0918B808B89EC90E0938B71
:10344000828B8AEC90E0958B848B8EEC90E0978B4E
:10345000868B118E128E138E148E08951F920F92EA
:103460000FB60F9211240BB60F922F938F939F9349
:10347000EF93FF93E091AF1EF091B01E8081E09139
:10348000B51EF091B61E82FD1DC090818091B81EC0
:103490008F5F8F732091B91E821741F0E091B81EA3
:1034A000F0E0E156F14E958F8093B81EFF91EF91B9
:1034B0009F918F912F910F900BBE0F900FBE0F9089
:1034C0001F9018958081F2CF1F920F920FB60F9226
:1034D00011240BB60F922F933F934F935F936F93EB
:1034E0007F938F939F93AF93BF93EF93FF938FE956
:1034F0009EE1AFDDFF91EF91BF91AF919F918F91D1
:103500007F916F915F914F913F912F910F900BBEE3
:103510000F900FBE0F901F901895EFE9FEE11382F8
:10352000128288EE93E0A0E0B0E084839583A683C6
:10353000B78386EA9CE19183808385ED90E095874F
:10354000848784ED90E09787868780ED90E0918B6B
:10355000808B81ED90E0938B828B82ED90E0958B58
:10356000848B86ED90E0978B868B118E128E138E56
:10357000148E08951F920F920FB60F9211240BB65E
:103580000F922F938F939F93EF93FF93E0914C1F94
:10359000F0914D1F8081E091521FF091531F82FDE9
:1035A0001DC090818091551F8F5F8F732091561F92
:1035B000821741F0E091551FF0E0E45CF04E958FEA
:1035C0008093551FFF91EF919F918F912F910F90B5
:1035D0000BBE0F900FBE0F901F9018958081F2CFF9
:1035E0001F920F920FB60F9211240BB60F922F93CA
:1035F0003F934F935F936F937F938F939F93AF937B
:10360000BF93EF93FF938CE39FE123DDFF91EF9155
:10361000BF91AF919F918F917F916F915F914F91EA
:103620003F912F910F900BBE0F900FBE0F901F90E8
:103630001895ECE3FFE11382128288EE93E0A0E09C
:10364000B0E084839583A683B78386EA9CE1918367
:10365000808385E391E09587848784E391E0978771
:10366000868780E391E0918B808B81E391E0938B5F
:10367000828B82E391E0958B848B86E391E0978B3C
:10368000868B118E128E138E148E0895AF92BF9278
:10369000CF92DF92EF92FF920F931F93CF93DF931E
:1036A0006C017B018B01040F151FEB015E01AE184D
:1036B000BF08C017D10759F06991D601ED91FC916F
:1036C0000190F081E02DC6011995892B79F7C5018C
:1036D000DF91CF911F910F91FF90EF90DF90CF90EE
:1036E000BF90AF9008954F925F926F927F92AF928A
:1036F000BF92CF92DF92EF92FF920F931F93CF93DF
:10370000DF93CDB7DEB729013A019B01AC01241943
:103710003509460957098A899B89AC89BD89BC014D
:10372000CD016A197B098C099D091CD0A80197015C
:10373000241935094609570952D0CA01B9016A0D41
:103740007B1D8C1D9D1DDF91CF911F910F91FF90CF
:10375000EF90DF90CF90BF90AF907F906F905F9091
:103760004F900895DB018F939F935DD0BF91AF91F0
:10377000A29F800D911DA39F900DB29F900D1124CB
:103780000895991B79E004C0991F961708F0961BBD
:10379000881F7A95C9F780950895A1E21A2EAA1B71
:1037A000BB1BFD010DC0AA1FBB1FEE1FFF1FA217F1
:1037B000B307E407F50720F0A21BB30BE40BF50BEE
:1037C000661F771F881F991F1A9469F76095709577
:1037D000809590959B01AC01BD01CF010895052E08
:1037E00097FB16F400940FD057FD05D0D6DF07FCE9
:1037F00002D046F408C050954095309521953F4F32
:103800004F4F5F4F089590958095709561957F4FCC
:103810008F4F9F4F0895EE0FFF1F881F8BBF07909C
:10382000F691E02D199409D0A59F900DB49F900DAD
:10383000A49F800D911D11240895A29FB001B39FF4
:10384000C001A39F700D811D1124911DB29F700DA9
:0C385000811D1124911D0895F894FFCFF4
:10385C00693FB942693FB9426E3FB9427E3FB942B6
:10386C00973FB942B73FB942DD3FB9420740B94231
:10387C003340B9426040B9428D40B942B940B94277
:10388C00A440B942A440B942A440B942A440B942B0
:10389C00A440B942A440B942A440B942A440B942A0
:1038AC00A440B942A440B942A440B942A440B94290
:1038BC00A440B942A440B942A440B942A440B94280
:1038CC00A440B942A440B942A440B942A440B94270
:1038DC00A440B942A440B942A440B942A440B94260
:1038EC00A440B942A440B942A440B942A440B94250
:1038FC00A440B942A440B9420841B9428941B942F5
:10390C00E041B942FE41B942DE41B9429241B9426D
:10391C003B41B942F040B942BB40B942A440B94224
:10392C00A440B942A440B942A440B942A440B9420F
:10393C00A440B942A440B942A440B942A440B942FF
:10394C00A440B942A440B942A440B942A440B942EF
:10395C00A440B942A440B942A440B942A440B942DF
:10396C001341B9424341B9429640B94200000000AC
:10397C00CDCC4C3DCDCCCC3D9A99193ECDCC4C3ECA
:10398C000000803E9A99993E3333B33ECDCCCC3E69
:10399C006666E63E0000003FCDCC0C3F9A99193F7D
:1039AC006666263F3333333F0000403FCDCC4C3F5F
:1039BC009A99593F6666663F3333733F0000803FE8
:1039CC006666863FCDCC8C3F3333933F9A99993FB3
:1039DC000000A03F6666A63FCDCCAC3F3333B33F6F
:1039EC009A99B93F0000C03F6666C63FCDCCCC3F2C
:1039FC003333D33F9A99D93F0000E03F6666E63FE8
:103A0C00CDCCEC3F3333F33F9A99F93F00000040A3
:103A1C0033330340666606409A990940CDCC0C407E
:103A2C000000104033331340666616409A991940D3
:103A3C00CDCC1C400000204033332340666626402A
:103A4C009A992940CDCC2C40000030403333334080
:103A5C00666636409A993940CDCC3C4000004040D7
:103A6C0033334340666646409A994940CDCC4C402E
:103A7C000000504033335340666656409A99594083
:103A8C00CDCC5C4000006040F6DEAB42F6DEAB42D3
:103A9C0085F6AB424F3AAC42B0A6AC422038AD42B0
:103AAC008DEBAD42DFBDAE42D8ABAF4201B2B042FE
:103ABC006ACCB1428DF6B2423211B4429238B54260
:103ACC00C95DB6426D79B7423B83B8423272B94296
:103ADC00C33CBA421AD9BA42833DBB42DE60BB42F8
:103AEC005795BB42F520BC4210E9BC42FAD2BD420C
:103AFC001DC4BE4210A2BF429A52C042A3BBC042D8
:103B0C0019C3C042B24EC042B343BF42B986BD4294
:103B1C00B2FBBA421F86B742560AB3428D6FAD4212
:103B2C008C2CAA422512AA42D3E3A942E8A6A942A8
:103B3C00E178A9425855A9425937A9428524A9428E
:103B4C007D22A942DA32A9422450A9426374A942C7
:103B5C005C9AA942C3C6A94221FDA9420322AA42EA
:103B6C00AF2FAA42200DB042EB5DB4427F82B74228
:103B7C0092C4B942E859BB426368BC425109BD4288
:103B8C00BA4BBD42D135BD428DC5BC426EF0BB4275
:103B9C008BA2BA42A7BCB842B6FEB542EA60B242AA
:103BAC009B54AD4200000000CDCC4C3DCDCCCC3D67
:103BBC009A99193ECDCC4C3E0000803E9A99993E84
:103BCC003333B33ECDCCCC3E6666E63E0000003FC0
:103BDC00CDCC0C3F9A99193F6666263F3333333F61
:103BEC000000403FCDCC4C3F9A99593F6666663FEA
:103BFC003333733F0000803F6666863FCDCC8C3FED
:103C0C003333933F9A99993F0000A03F6666A63FD5
:103C1C00CDCCAC3F3333B33F9A99B93F0000C03F92
:103C2C006666C63FCDCCCC3F3333D33F9A99D93F50
:103C3C000000E03F6666E63FCDCCEC3F3333F33F0C
:103C4C009A99F93F00000040333303406666064002
:103C5C009A990940CDCC0C400000104033331340EE
:103C6C00666616409A991940CDCC1C400000204045
:103C7C0033332340666626409A992940CDCC2C409C
:103C8C000000304033333340666636409A993940F1
:103C9C00CDCC3C4000004040333343406666464048
:103CAC009A994940CDCC4C4000005040333353409E
:103CBC00666656409A995940CDCC5C4000006040F5
:103CCC00FC4CBA42FC4CBA420151BA42AC5CBA420E
:103CDC00CC6FBA42FA89BA42FFA9BA42E8CFBA42CB
:103CEC00E8FBBA42F12CBB429C62BB42899ABB42B4
:103CFC004A82954256868A42E9E6814262AB754217
:103D0C00F5FE6942997C6042C5045942A092534227
:103D1C00C1345042000B4F42ADDD4E42106C4E424E
:103D2C004CDB4D42E64D4D42B2E14C4226AE4C428C
:103D3C00E8C44C4268344D42B20C4E424E664F427F
:103D4C00E36A5142D65E54423BAE584267E45E424F
:103D5C0062D36742AA7674423B797B4282AB734250
:103D6C00903E6642DF495542F8654D42D4154942B2
:103D7C00121E4342826C3B42C3513242F3AC284286
:103D8C007F961F427AC51742388511423A5111422B
:103D9C00C23B1B422EE8224284F82542D4692E42B3
:103DAC00E255364293173D42869A4242F002474210
:103DBC0052874A42B2604D4298C54F421BEA51426B
:103DCC0003035442414B5642660D5942B9AF5C4213
:103DDC00C3FB6042165B68429F55724200000000B4
:103DEC00CDCC4C3DCDCCCC3D9A99193ECDCC4C3E56
:103DFC000000803E9A99993E3333B33ECDCCCC3EF5
:103E0C006666E63E0000003FCDCC0C3F9A99193F08
:103E1C006666263F3333333F0000403FCDCC4C3FEA
:103E2C009A99593F6666663F3333733F0000803F73
:103E3C006666863FCDCC8C3F3333933F9A99993F3E
:103E4C000000A03F6666A63FCDCCAC3F3333B33FFA
:103E5C009A99B93F0000C03F6666C63FCDCCCC3FB7
:103E6C003333D33F9A99D93F0000E03F6666E63F73
:103E7C00CDCCEC3F3333F33F9A99F93F000000402F
:103E8C0033330340666606409A990940CDCC0C400A
:103E9C000000104033331340666616409A9919405F
:103EAC00CDCC1C40000020403333234066662640B6
:103EBC009A992940CDCC2C4000003040333333400C
:103ECC00666636409A993940CDCC3C400000404063
:103EDC0033334340666646409A994940CDCC4C40BA
:103EEC000000504033335340666656409A9959400F
:103EFC00CDCC5C4000006040AE63B442AE63B442D3
:103F0C00DD63B4424364B4424364B442B763B44225
:103F1C001A64B442C064B4429E64B442DB64B442DA
:103F2C004165B442DC68B4427400F9423E73064306
:103F3C00E9400E4388A31443CCE61943DF2D1E43FE
:103F4C000E882143B1F823434E7A25436EFF254357
:103F5C0052F5254319D9254387AC25435D7225437A
:103F6C00662F254309EB244306AF24436B86244379
:103F7C00AA7B2443D995244328D52443A42E254336
:103F8C000A86254344AF2543095A25432817244361
:103F9C00695C23438E7C26439BB22B4367F63143EB
:103FAC00BDFF33430000344300003443000034436E
:103FBC000000344300003443000034430000344319
:103FCC0000003443CB2B324387BE2C4343BF2843E2
:103FDC008331274326E627430FC4274386502743C4
:103FEC00BACB2643A5522643C1F0254345A9254308
:103FFC00C47B25435E66254365662543E2772543EE
:10400C00779325431BAB25436BBC25432AAB254338
:10401C001D28254300000000CDCC4C3DCDCCCC3D23
:10402C009A99193ECDCC4C3E0000803E9A99993E0F
:10403C003333B33ECDCCCC3E6666E63E0000003F4B
:10404C00CDCC0C3F9A99193F6666263F3333333FEC
:10405C000000403FCDCC4C3F9A99593F6666663F75
:10406C003333733F0000803F6666863FCDCC8C3F78
:10407C003333933F9A99993F0000A03F6666A63F61
:10408C00CDCCAC3F3333B33F9A99B93F0000C03F1E
:10409C006666C63FCDCCCC3F3333D33F9A99D93FDC
:1040AC000000E03F6666E63FCDCCEC3F3333F33F98
:1040BC009A99F93F0000004033330340666606408E
:1040CC009A990940CDCC0C4000001040333313407A
:1040DC00666616409A991940CDCC1C4000002040D1
:1040EC0033332340666626409A992940CDCC2C4028
:1040FC000000304033333340666636409A9939407D
:10410C00CDCC3C40000040403333434066664640D3
:10411C009A994940CDCC4C40000050403333534029
:10412C00666656409A995940CDCC5C400000604080
:10413C001228AE421228AE429A23AE42C116AE42AB
:10414C006902AE4228E7AD42CBC4AD42009CAD4201
:10415C00AB6DAD42C339AD42F100AD429AC2AC4237
:10416C009E448E428B5A854241BD7C4235557142EC
:10417C0092F46742A35A6042BB695A4254195642A0
:10418C00C070534200865242C2DB524246BE53427A
:10419C004F015542607756426DEF57426E3459428B
:1041AC00BA0D5A42A6405A425E93594205D1574223
:1041BC0037CF54425375504253C84A4242ED4342A2
:1041CC0032533C426DBB3442D8A33042FFF02B42F9
:1041DC00BE8524423C6B1C42DD221C42B46820424A
:1041EC006D5926425B072E42992237428ACB4042B8
:1041FC0000E849427EBF5142D0055842538E5F427F
:10420C00DB586B427EA9734227D076424B8C6B42B3
:10421C009A2864420E355F4249C55B42334159428C
:10422C0061445742F288554210DA5342240B5242F1
:10423C0023F24F42F1634D4275334A429332464268
:10424C005CA7414272863A42A598324200000000B7
:10425C00CDCC4C3DCDCCCC3D9A99193ECDCC4C3EE1
:10426C000000803E9A99993E3333B33ECDCCCC3E80
:10427C006666E63E0000003FCDCC0C3F9A99193F94
:10428C006666263F3333333F0000403FCDCC4C3F76
:10429C009A99593F6666663F3333733F0000803FFF
:1042AC006666863FCDCC8C3F3333933F9A99993FCA
:1042BC000000A03F6666A63FCDCCAC3F3333B33F86
:1042CC009A99B93F0000C03F6666C63FCDCCCC3F43
:1042DC003333D33F9A99D93F0000E03F6666E63FFF
:1042EC00CDCCEC3F3333F33F9A99F93F00000040BB
:1042FC0033330340666606409A990940CDCC0C4096
:10430C000000104033331340666616409A991940EA
:10431C00CDCC1C4000002040333323406666264041
:10432C009A992940CDCC2C40000030403333334097
:10433C00666636409A993940CDCC3C4000004040EE
:10434C0033334340666646409A994940CDCC4C4045
:10435C000000504033335340666656409A9959409A
:10436C00CDCC5C40000060400A21BC420A21BC421A
:10437C007B09BC42B1C5BB425059BB42E0C7BA42F3
:10438C007314BA422142B9422754B842FF4DB74286
:10439C009633B6427309B542CEEEB3426EC7B24203
:1043AC0037A2B1429386B042C57CAF42CE8DAE42AD
:1043BC003DC3AD42E626AD427DC2AC42229FAC422B
:1043CC00A96AAC420BDFAB42F016AB42062DAA42F7
:1043DC00E33BA942F05DA84266ADA7425D44A7420B
:1043EC00E73CA7424EB1A7424DBCA8424779AA422E
:1043FC004E04AD42E179B042AAF5B4427390BA4290
:10440C0074D3BD42DBEDBD422D1CBE421859BE42D9
:10441C001F87BE42A8AABE42A7C8BE427BDBBE42D3
:10442C0084DDBE4226CDBE42DCAFBE429D8BBE4279
:10443C00A465BE423D39BE42DF02BE42FDDDBD4237
:10444C0051D0BD42E0F2B74215A2B342817DB042D9
:10445C006E3BAE4218A6AC429D97AB42AFF6AA4259
:10446C0046B4AA422FCAAA42733AAB42920FAC424C
:10447C00755DAD425943AF42BFFFB142DF9EB542BD
:10448C004FABBA4200000000CDCC4C3DCDCCCC3D66
:10449C009A99193ECDCC4C3E0000803E9A99993E9B
:1044AC003333B33ECDCCCC3E6666E63E0000003FD7
:1044BC00CDCC0C3F9A99193F6666263F3333333F78
:1044CC000000403FCDCC4C3F9A99593F6666663F01
:1044DC003333733F0000803F6666863FCDCC8C3F04
:1044EC003333933F9A99993F0000A03F6666A63FED
:1044FC00CDCCAC3F3333B33F9A99B93F0000C03FAA
:10450C006666C63FCDCCCC3F3333D33F9A99D93F67
:10451C000000E03F6666E63FCDCCEC3F3333F33F23
:10452C009A99F93F00000040333303406666064019
:10453C009A990940CDCC0C40000010403333134005
:10454C00666616409A991940CDCC1C40000020405C
:10455C0033332340666626409A992940CDCC2C40B3
:10456C000000304033333340666636409A99394008
:10457C00CDCC3C400000404033334340666646405F
:10458C009A994940CDCC4C400000504033335340B5
:10459C00666656409A995940CDCC5C40000060400C
:1045AC000543B9420543B942FD42B942E742B9421B
:1045BC00C242B9429242B9425642B9421142B94240
:1045CC00C341B9426E41B9421441B942B740B942F4
:1045DC00A440B942A440B942A440B942A440B94253
:1045EC00A440B942A440B942A440B942A440B94243
:1045FC00A440B942A440B942A440B942A440B94233
:10460C00A440B942A440B9423D40B942B43FB9427A
:10461C004B3FB942153FB942233FB942693FB942BA
:10462C00D03FB9424040B942A540B942A440B9423A
:10463C00A440B942A440B942A440B942A440B942F2
:10464C00A440B942A440B942A440B942A440B942E2
:10465C00A440B942A440B942A440B942A440B942D2
:10466C00A440B942A440B942A440B942A440B942C2
:10467C00A440B942A440B942A440B942A440B942B2
:10468C00A440B942A440B942A440B9423B40B9420B
:10469C00733FB942E33EB942A53EB942C63EB94268
:1046AC002A3FB942AC3FB9422C40B9429B40B94277
:1046BC008540B9425041B9425E41B9420000000008
:1046CC00CDCC4C3DCDCCCC3D9A99193ECDCC4C3E6D
:1046DC000000803E9A99993E3333B33ECDCCCC3E0C
:1046EC006666E63E0000003FCDCC0C3F9A99193F20
:1046FC006666263F3333333F0000403FCDCC4C3F02
:10470C009A99593F6666663F3333733F0000803F8A
:10471C006666863FCDCC8C3F3333933F9A99993F55
:10472C000000A03F6666A63FCDCCAC3F3333B33F11
:10473C009A99B93F0000C03F6666C63FCDCCCC3FCE
:10474C003333D33F9A99D93F0000E03F6666E63F8A
:10475C00CDCCEC3F3333F33F9A99F93F0000004046
:10476C0033330340666606409A990940CDCC0C4021
:10477C000000104033331340666616409A99194076
:10478C00CDCC1C40000020403333234066662640CD
:10479C009A992940CDCC2C40000030403333334023
:1047AC00666636409A993940CDCC3C40000040407A
:1047BC0033334340666646409A994940CDCC4C40D1
:1047CC000000504033335340666656409A99594026
:1047DC00CDCC5C40000060405725BC425725BC4204
:1047EC003A40BC42A98DBC423D09BD4212AFBD420C
:1047FC00737BBE42BF6ABF423379C042B1A2C14291
:10480C00A4E2C242D833C442209DC542180EC7420E
:10481C00467BC8427BDBC9429724CB42AA4BCC4295
:10482C003245CD426805CE42AD80CE420BACCE4275
:10483C001CA5CE422A8ACE421951CE4259EECD4207
:10484C00DC3DCD428B41CC42DFFDCA425573C9429F
:10485C00A2ADC74293CFC5425DFFC3428A5AC24242
:10486C00BFF5C042F6C3BF4285F0BE428B86BE4246
:10487C00F0A8BA42749FB54264EFB142EE43AF4226
:10488C00DE5DAD42D70FAC429D3AAB4240CAAA4264
:10489C0041B4AA4292F6AA426697AB42C2A5AC4278
:1048AC00F03AAE42D07CB04220A1B34292F1B74272
:1048BC0091CFBD42F7DDBD42D302BE423039BE427C
:1048CC00117BBE4297B1BE42E4D2BE42DDEABE428B
:1048DC007CF3BE4230E8BE425CCCBE42FBA6BE427C
:1048EC001D7EBE42A556BE421134BE429319BE4235
:1048FC000F0CBE4200000000CDCC4C3DCDCCCC3DCD
:10490C009A99193ECDCC4C3E0000803E9A99993E26
:10491C003333B33ECDCCCC3E6666E63E0000003F62
:10492C00CDCC0C3F9A99193F6666263F3333333F03
:10493C000000403FCDCC4C3F9A99593F6666663F8C
:10494C003333733F0000803F6666863FCDCC8C3F8F
:10495C003333933F9A99993F0000A03F6666A63F78
:10496C00CDCCAC3F3333B33F9A99B93F0000C03F35
:10497C006666C63FCDCCCC3F3333D33F9A99D93FF3
:10498C000000E03F6666E63FCDCCEC3F3333F33FAF
:10499C009A99F93F000000403333034066660640A5
:1049AC009A990940CDCC0C40000010403333134091
:1049BC00666616409A991940CDCC1C4000002040E8
:1049CC0033332340666626409A992940CDCC2C403F
:1049DC000000304033333340666636409A99394094
:1049EC00CDCC3C40000040403333434066664640EB
:1049FC009A994940CDCC4C40000050403333534041
:104A0C00666656409A995940CDCC5C400000604097
:104A1C005C69C3425C69C342A372C342928DC342B8
:104A2C00AEB9C342F2F5C3425C3FC442E695C44200
:104A3C0015FAC4421A69C542F3E2C542D95FC642AF
:104A4C0069E5AB4241FF9E424BDD9542BBBC8E42B9
:104A5C00D1078942E47B8442E5F88042AFE27C4294
:104A6C00AFC87942DAB778425FA87442FF206A4235
:104A7C008B995B4285224B42505F45426ED4434238
:104A8C00BD4441425F823D4262A238424D3E3342B8
:104A9C0064032E421A672942C4A52542E9533042C9
:104AAC008F3D3942E8683E42CD59454299664F42A6
:104ABC00AEF65742B6EE5E42AE7C6442F8E4684213
:104ACC002C6E6C425F5A6F42A4E67142DB4D74420D
:104ADC009ACD7642AAAD7942F94A7D42431481427D
:104AEC0023858442C3908942092E91427B1F8F42B9
:104AFC0044BE8942963D8242F32A734287816842C2
:104B0C002B4765420B2F604225EF58429BB24F4218
:104B1C00058C4542AFB93B428D143342E80A2C4216
:104B2C006F592742C24A2342AF682142000000005D
:104B3C00CDCC4C3DCDCCCC3D9A99193ECDCC4C3EF8
:104B4C000000803E9A99993E3333B33ECDCCCC3E97
:104B5C006666E63E0000003FCDCC0C3F9A99193FAB
:104B6C006666263F3333333F0000403FCDCC4C3F8D
:104B7C009A99593F6666663F3333733F0000803F16
:104B8C006666863FCDCC8C3F3333933F9A99993FE1
:104B9C000000A03F6666A63FCDCCAC3F3333B33F9D
:104BAC009A99B93F0000C03F6666C63FCDCCCC3F5A
:104BBC003333D33F9A99D93F0000E03F6666E63F16
:104BCC00CDCCEC3F3333F33F9A99F93F00000040D2
:104BDC0033330340666606409A990940CDCC0C40AD
:104BEC000000104033331340666616409A99194002
:104BFC00CDCC1C4000002040333323406666264059
:104C0C009A992940CDCC2C400000304033333340AE
:104C1C00666636409A993940CDCC3C400000404005
:104C2C0033334340666646409A994940CDCC4C405C
:104C3C000000504033335340666656409A995940B1
:104C4C00CDCC5C4000006040026BB442026BB442BD
:104C5C008F6AB4429569B442A569B442066BB442FA
:104C6C00196AB4429768B4423869B4420169B442D3
:104C7C005F6AB4425A62B44256FB834211135842E3
:104C8C007BD035422FDE1A42482705423985E74151
:104C9C005B88CC419206B9418309AD4196E9A841A4
:104CAC0030D09A417A5C6D41ACB00B41B44F0240AC
:104CBC00C21C853A740BBD330000D02C00000000E0
:104CCC0000000000000000000000000000000000D8
:104CDC0000000000DB58B140E7742041CA42494152
:104CEC0062EE4A4153965241542C6041508C6E41B5
:104CFC00D07E7B410F1F83416E59874192888A4138
:104D0C00F5D48C415C6D8E41A2888F417C719041B1
:104D1C004A9F9141B1E59341F7CD98411742A34188
:104D2C0061E6B841658DAA41A3B6854177BD27419F
:104D3C00087668407C94ED3AF4B328340000392DA1
:104D4C000000000000000000000000000000000057
:104D5C000000000000000000000000000000000047
:104D6C000000000000000000CDCC4C3DCDCCCC3D73
:104D7C009A99193ECDCC4C3E0000803E9A99993EB2
:104D8C003333B33ECDCCCC3E6666E63E0000003FEE
:104D9C00CDCC0C3F9A99193F6666263F3333333F8F
:104DAC000000403FCDCC4C3F9A99593F6666663F18
:104DBC003333733F0000803F6666863FCDCC8C3F1B
:104DCC003333933F9A99993F0000A03F6666A63F04
:104DDC00CDCCAC3F3333B33F9A99B93F0000C03FC1
:104DEC006666C63FCDCCCC3F3333D33F9A99D93F7F
:104DFC000000E03F6666E63FCDCCEC3F3333F33F3B
:104E0C009A99F93F00000040333303406666064030
:104E1C009A990940CDCC0C4000001040333313401C
:104E2C00666616409A991940CDCC1C400000204073
:104E3C0033332340666626409A992940CDCC2C40CA
:104E4C000000304033333340666636409A9939401F
:104E5C00CDCC3C4000004040333343406666464076
:104E6C009A994940CDCC4C400000504033335340CC
:104E7C00666656409A995940CDCC5C400000604023
:104E8C00DCB2C342DCB2C3420DBDC3424DDAC342F5
:104E9C007708C4422646C442DF93C442CBEFC442D7
:104EAC00A057C5426FCBC542B248C64282D2C64259
:104EBC0017C0DC42BDCBE74212CBEF42A823F6422F
:104ECC00314AFB429A70FF4269560143DC8202432D
:104EDC00FD3B0343C67B0343143B04437A1D06434B
:104EEC005A960843652A0B431CC50B43F5650B43C7
:104EFC008AC40A4338D50943F49C084362420743E9
:104F0C004DF105437FC7044369D4034336F5004391
:104F1C002F66FD421FE2FA421F25FE42431B01434E
:104F2C00E8650243EB3D034341D203435E40044337
:104F3C00609B044388F004430D4A0543CDB0054300
:104F4C00542D06433DC80643D78907436E78084362
:104F5C00D593094321CB0A433BE50B4313A90C43DF
:104F6C0050930E43F50D1143E7931343E28C144316
:104F7C009DC213438D7F124328B11043DB610E4356
:104F8C0093D60B43775F094345330743FA6D0543CB
:104F9C00813F0443A4390343CFBF02430000000008
:104FAC00CDCC4C3DCDCCCC3D9A99193ECDCC4C3E84
:104FBC000000803E9A99993E3333B33ECDCCCC3E23
:104FCC006666E63E0000003FCDCC0C3F9A99193F37
:104FDC006666263F3333333F0000403FCDCC4C3F19
:104FEC009A99593F6666663F3333733F0000803FA2
:104FFC006666863FCDCC8C3F3333933F9A99993F6D
:10500C000000A03F6666A63FCDCCAC3F3333B33F28
:10501C009A99B93F0000C03F6666C63FCDCCCC3FE5
:10502C003333D33F9A99D93F0000E03F6666E63FA1
:10503C00CDCCEC3F3333F33F9A99F93F000000405D
:10504C0033330340666606409A990940CDCC0C4038
:10505C000000104033331340666616409A9919408D
:10506C00CDCC1C40000020403333234066662640E4
:10507C009A992940CDCC2C4000003040333333403A
:10508C00666636409A993940CDCC3C400000404091
:10509C0033334340666646409A994940CDCC4C40E8
:1050AC000000504033335340666656409A9959403D
:1050BC00CDCC5C4000006040A9DAAB42A9DAAB422F
:1050CC00C6BFAB425672AB42C3F6AA42EE50AA42DE
:1050DC008D84A9424195A842CD86A7424F5DA64238
:1050EC005C1DA54228CCA342E062A242E8F1A0429A
:1050FC00BA849F4285249E4269DB9C4256B49B42F3
:10510C00CEBA9A4298FA9942537F9942F5539942F2
:10511C00E45A9942D6759942E7AE9942A7119A4240
:10512C0024C29A4275BE9B4220029D42AB8C9E4289
:10513C005E52A0426D30A242A300A44276A5A542C5
:10514C00410AA7420A3CA8427B0FA9427579A942A1
:10515C001057AD428C60B2429C10B64212BCB842A1
:10516C0022A2BA4229F0BB4263C5BC42C035BD4243
:10517C00BF4BBD426E09BD429A68BC423E5ABB420F
:10518C0010C5B9423083B742E05EB4426E0EB042F5
:10519C006F30AA420922AA422DFDA942D0C6A942CB
:1051AC00EF84A942694EA9421C2DA9422315A9429C
:1051BC00840CA942D017A942A433A9420559A9428B
:1051CC00E381A9425BA9A942DCCBA94228E5A9420B
:1051DC00C2F3A94200000000CDCC4C3DCDCCCC3D5F
:1051EC009A99193ECDCC4C3E0000803E9A99993E3E
:1051FC003333B33ECDCCCC3E6666E63E0000003F7A
:10520C00CDCC0C3F9A99193F6666263F3333333F1A
:10521C000000403FCDCC4C3F9A99593F6666663FA3
:10522C003333733F0000803F6666863FCDCC8C3FA6
:10523C003333933F9A99993F0000A03F6666A63F8F
:10524C00CDCCAC3F3333B33F9A99B93F0000C03F4C
:10525C006666C63FCDCCCC3F3333D33F9A99D93F0A
:10526C000000E03F6666E63FCDCCEC3F3333F33FC6
:10527C009A99F93F000000403333034066660640BC
:10528C009A990940CDCC0C400000104033331340A8
:10529C00666616409A991940CDCC1C4000002040FF
:1052AC0033332340666626409A992940CDCC2C4056
:1052BC000000304033333340666636409A993940AB
:1052CC00CDCC3C4000004040333343406666464002
:1052DC009A994940CDCC4C40000050403333534058
:1052EC00666656409A995940CDCC5C4000006040AF
:1052FC00BA1C000000006A18461B1A184B18EC1751
:04530C000618F81770
:00000001FF
