:10000000F9C0000027C1000025C1000023C1000085
:1000100021C100001FC100001DC100001BC1000064
:1000200019C1000017C1000015C1000013C1000074
:1000300011C100000FC100000DC100000BC1000084
:1000400009C10000CAC5000005C1000003C10000CD
:100050006FC40000FFC00000FDC00000CBC700005F
:10006000F9C000000C949F0A0C94D50AF3C000005C
:10007000F1C00000EFC00000EDC00000EBC00000C8
:10008000D9C50000E7C00000E5C00000E3C00000E3
:100090000C942B0B0C94610BDDC00000DBC0000046
:1000A000D9C00000D7C00000F2C50000D3C00000D6
:1000B000D1C00000CFC00000CDC0000015C60000B8
:1000C000C9C00000C7C00000C5C000000C94B70B39
:1000D0000C94ED0BBFC000000C94430C0C94790CF5
:1000E000B9C0000000000A0B02090C0D0E0807033E
:1000F00004010000000000000000000000000000FB
:1001000000000000000000000000000000000000EF
:1001100012111000000000000000000000000000AC
:100120000000000000000000000001021020200874
:100130000810204010204080020102010804020142
:1001400001020408102040808040201008040201B1
:10015000800402018040201008040201080402010A
:100160000102040810204080010204081020408091
:1001700005050505070508080808020202020A0A23
:100180000808040404040101010101010101030341
:10019000030303030303040707070C0C0C0C0C0CEC
:1001A0000C0C0202020206060606060606060B0BE9
:1001B0000B0B0B0B0B0B00002200250028002B0063
:1001C0002E003100340002010000050108010B017E
:1001D00000002100240027002A002D0030003300F9
:1001E00001010000040107010A013B01FE0A8A0B1C
:1001F000160CA20C11241FBECFEFD1E2DEBFCDBF83
:1002000000E00CBF18E0A0E0B2E0EEE6FBE100E0A9
:100210000BBF02C007900D92AC3EB107D9F72CE09E
:10022000ACEEB8E001C01D92AD3CB207E1F710E0C2
:10023000CAEFD0E000E006C021970109802FFE013F
:100240000E94940DC53FD10780E00807A9F7D6D3D7
:100250000C94B50DD5CE70E023E0829FC00111242F
:100260008451974F32C670E023E0829FC001112471
:100270008451974F66C60F931F93CF93DF93CCEEB5
:10028000D8E000E119E0CE015CD523960C171D07DC
:10029000D1F7DF91CF911F910F9108958091A70C15
:1002A0009091A80C0196E091310CF091320C8934B8
:1002B000910514F090E080E09C01220F331FE20FC3
:1002C000F31F608171819093A80C8093A70C77FD38
:1002D0009CC1653B71050CF09AC184E0C4DF80913C
:1002E000A90C9091AA0C0196E091370CF091380C72
:1002F0008934910514F090E080E09C01220F331FB7
:10030000E20FF31F608171819093AA0C8093A90C76
:1003100077FD7FC1653B71050CF07DC185E0A3DFF2
:100320008091AB0C9091AC0C0196E0913D0CF0915A
:100330003E0C8934910514F090E080E09C01220F7E
:10034000331FE20FF31F608171819093AC0C809397
:10035000AB0C77FD62C1653B71050CF060C180E0BC
:1003600082DF8091AD0C9091AE0C0196E091430C30
:10037000F091440C8934910514F090E080E09C01E8
:10038000220F331FE20FF31F608171819093AE0C37
:100390008093AD0C77FD45C1653B71050CF043C101
:1003A00081E061DF8091AF0C9091B00C0196E091FB
:1003B000490CF0914A0C8934910514F090E080E0EA
:1003C0009C01220F331FE20FF31F60817181909314
:1003D000B00C8093AF0C77FD28C1653B71050CF024
:1003E00026C182E040DF8091B10C9091B20C019661
:1003F000E0914F0CF091500C8934910514F090E08D
:1004000080E09C01220F331FE20FF31F6081718196
:100410009093B20C8093B10C77FD0BC1653B7105D5
:100420000CF009C183E01FDF8091B30C9091B40CF4
:100430000196E091550CF091560C8934910514F019
:1004400090E080E09C01220F331FE20FF31F6081D8
:1004500071819093B40C8093B30C77FDEEC0653B33
:1004600071050CF0ECC08AE0FEDE8091B50C909135
:10047000B60C0196E0915B0CF0915C0C893491050F
:1004800014F090E080E09C01220F331FE20FF31F75
:10049000608171819093B60C8093B50C77FDD1C0CB
:1004A000653B71050CF0CFC08BE0DDDE8091B70CB1
:1004B0009091B80C0196E091610CF091620C893436
:1004C000910514F090E080E09C01220F331FE20FB1
:1004D000F31F608171819093B80C8093B70C77FD06
:1004E000B4C0653B71050CF0B2C086E0BCDE809103
:1004F000B90C9091BA0C0196E091670CF091680CE0
:100500008934910514F090E080E09C01220F331FA4
:10051000E20FF31F608171819093BA0C8093B90C44
:1005200077FD97C0653B71050CF095C087E09BDEB9
:100530008091BB0C9091BC0C0196E0916D0CF091F8
:100540006E0C8934910514F090E080E09C01220F3C
:10055000331FE20FF31F608171819093BC0C809375
:10056000BB0C77FD7AC0653B71050CF078C088E064
:100570007ADE8091BD0C9091BE0C0196E091730CD7
:10058000F091740C8934910514F090E080E09C01A6
:10059000220F331FE20FF31F608171819093BE0C15
:1005A0008093BD0C77FD5DC0653B71050CF05BC0B1
:1005B00089E059DE8091120990911309A0911409E4
:1005C000B09115090196A11DB11D80931209909358
:1005D0001309A0931409B0931509892B8A2B8B2B2F
:1005E00099F48091160990911709A0911809B0917A
:1005F00019090196A11DB11D809316099093170941
:10060000A0931809B0931909089560E066CE64EBD1
:1006100064CE60E083CE64EB81CE60E0A0CE64EB7C
:100620009ECE60E0BDCE64EBBBCE60E0DACE64EB84
:10063000D8CE60E0F7CE64EBF5CE60E014CF64EB8B
:1006400012CF60E031CF64EB2FCF60E04ECF64EB90
:100650004CCF60E06BCF64EB69CF60E088CF64EB98
:1006600086CF60E0A5CF64EBA3CFAF92BF92CF92CD
:10067000DF92EF92FF921F93CF93DF93E0E1F9E0D7
:100680008AE0DF011D928A95E9F7CFE2DCE08CE990
:10069000FE0111928A95E9F786E498E09B838A83AC
:1006A000AA24AA94BA2CB092A80CA092A70C11E08C
:1006B0001093C60CC12CD12C7601C394C092930C1C
:1006C000D092940CE092950CF092960C68E084E045
:1006D000C2DD1F821E8284EB97E099878887B092E3
:1006E000AA0CA092A90C1093C50CC0928F0CD092AA
:1006F000900CE092910CF092920C69E085E0ABDDF9
:100700001D861C8682E297E09F878E87B092AC0C94
:10071000A092AB0C1093CA0CC092A30CD092A40C64
:10072000E092A50CF092A60C6AE080E094DD1B8AB2
:100730001A8A80E996E09D8B8C8BB092AE0CA092C9
:10074000AD0C1093C90CC0929F0CD092A00CE092FB
:10075000A10CF092A20C6BE081E07DDD198E188E69
:100760008EEF95E09B8F8A8FB092B00CA092AF0C69
:100770001093C80CC0929B0CD0929C0CE0929D0CE4
:10078000F0929E0C6CE082E066DD1F8E1E8E8CE681
:1007900095E099A388A3B092B20CA092B10C1093EB
:1007A000C70CC092970CD092980CE092990CF092E2
:1007B0009A0C6DE083E04FDD1DA21CA28AED94E04F
:1007C0009FA38EA3B092B40CA092B30C1093C00C54
:1007D000C0927B0CD0927C0CE0927D0CF0927E0C4F
:1007E00062E08AE038DD1BA61AA688E494E09DA7A3
:1007F0008CA7B092B60CA092B50C1093BF0CC0920F
:10080000770CD092780CE092790CF0927A0C63E03D
:100810008BE021DD19AA18AA86EB93E09BAB8AAB8B
:10082000B092B80CA092B70C1093C40CC0928B0C71
:10083000D0928C0CE0928D0CF0928E0C64E086E0ED
:100840000ADD1FAA1EAA84E293E099AF88AFB09296
:10085000BA0CA092B90C1093C30CC092870CD09222
:10086000880CE092890CF0928A0C65E087E0F3DC5A
:100870001DAE1CAE82E992E09FAF8EAFB092BC0C71
:10088000A092BB0C1093C20CC092830CD092840C2B
:10089000E092850CF092860C66E088E0DCDC109239
:1008A000720C1092710C80E092E09093740C809323
:1008B000730CB092BE0CA092BD0C1093C10CC092F0
:1008C0007F0CD092800CE092810CF092820C67E059
:1008D00089E0DF91CF911F91FF90EF90DF90CF9053
:1008E000BF90AF90B8CC089540E855E260E070E06A
:1008F00090E080E000C08130910571F01CF4892BFC
:1009000039F008958230910559F0039769F0089500
:1009100026E08BEB99E0B3C526E088E59AE0FBCFB3
:1009200026E085EF9AE0F7CF26E082E99BE0F3CF5F
:100930001F920F920FB60F9211240BB60F922F93A6
:100940003F934F935F936F937F938F939F93AF9357
:10095000BF93EF93FF938EE094ED90938500809387
:10096000840034D0FF91EF91BF91AF919F918F910F
:100970007F916F915F914F913F912F910F900BBE9F
:100980000F900FBE0F901F9018958EE094ED9093EE
:10099000850080938400AFE6B0E08C918E7F8C93CD
:1009A000E0E8F0E080818C7F8083E1E8F0E0808106
:1009B000877E808380818360808380818B7F80833A
:1009C0008C9181608C93089581E0089580911A093B
:1009D00091E0980F90931A09882349F021E030E0C4
:1009E00030931C0920931B0980931A090895789469
:1009F00055DCF89480911A098150F6CFCF93DF939C
:100A00001092CC0C1092CB0C3FD36EDFC091D80863
:100A1000D091D9081982188228DEF894B6DF81E0D7
:100A200028813981232B09F080E08093CB0C7894C6
:100A300078948091CB0C811107C055DFF89490E039
:100A400080E0DF91CF91089581E028813981232BC7
:100A500009F480E08093CC0C9091CC0C81E0911152
:100A600080E08093CB0CB0DFE4CFCF92DF92EF92A7
:100A7000FF920F931F93CF93DF936B017A01EC01E9
:100A8000C25ED64F28813CE0389F8001399F100D0F
:100A9000112427FF24C0FB011182108288818F5FFF
:100AA000888388819801280F311D87FD3A95C901F7
:100AB00020911D09F6012817190629F024F08881D4
:100AC0008C300CF43BC080819181049680349C4929
:100AD00008F473C0F60180819181049670C088810A
:100AE0009801280F311D87FD3A95C90120911D09F4
:100AF0002817190699F294F28881A801480F511D10
:100B000087FD5A95FA01EE0FFF1FE40FF51FEE5D0A
:100B1000F64F808186FFC2CF8881F801E80FF11D72
:100B200087FDFA95CF01EE0FFF1FE80FF91FEE5D6D
:100B3000F64F808160E08F73ABD3B0CF808191811D
:100B40002881A801420F511D27FD5A959A01FA01EB
:100B5000EE0FFF1FE20FF31FEE5DF64F2181328192
:100B6000820F931FF7019183808388819801280F5A
:100B7000311D87FD3A95F901EE0FFF1FE20FF31FBC
:100B8000EE5DF64F808186FF1FC08881080F111D22
:100B900087FD1A95F801EE0FFF1FE00FF11FEE5DC4
:100BA000F64F808161E08F73DF91CF911F910F919C
:100BB000FF90EF90DF90CF906BC380E49CE9F7014A
:100BC000918380838FEF8883DF91CF911F910F9165
:100BD000FF90EF90DF90CF9008951F920F920FB685
:100BE0000F9211240BB60F922F933F934F935F9365
:100BF0006F937F938F939F93AF93BF93EF93FF93E5
:100C000048E850E064E870E081E090E02EDFFF917A
:100C1000EF91BF91AF919F918F917F916F915F9174
:100C20004F913F912F910F900BBE0F900FBE0F90E1
:100C30001F9018951F920F920FB60F9211240BB6AA
:100C40000F922F933F934F935F936F937F938F9365
:100C50009F93AF93BF93EF93FF9348E950E064E90C
:100C600070E082E090E001DFFF91EF91BF91AF91E2
:100C70009F918F917F916F915F914F913F912F91B4
:100C80000F900BBE0F900FBE0F901F9018951F92E4
:100C90000F920FB60F9211240BB60F922F933F9322
:100CA0004F935F936F937F938F939F93AF93BF9374
:100CB000EF93FF9348EA50E064EA70E083E090E04D
:100CC000D4DEFF91EF91BF91AF919F918F917F9172
:100CD0006F915F914F913F912F910F900BBE0F90AD
:100CE0000FBE0F901F9018951F920F920FB60F9284
:100CF00011240BB60F922F933F934F935F936F93F3
:100D00007F938F939F93AF93BF93EF93FF9348E2AB
:100D100051E064E271E090E080E0A7DEFF91EF91A6
:100D2000BF91AF919F918F917F916F915F914F9103
:100D30003F912F910F900BBE0F900FBE0F901F9001
:100D40001895FC0190911D09903398F481E0890F6A
:100D500080931D099083892F90E0FC01EE0FFF1F07
:100D6000E80FF91FEE5DF64F88EB9BE092838183DD
:100D700008958FEF80830895DF92EF92FF920F9393
:100D80001F93CF93DF93EC01D62E7A0189018881DE
:100D9000803308F065C061E08D2D3ED28881282F18
:100DA00030E0F901EE0FFF1FE20FF31FEE5DF64F8B
:100DB0009D2D9F736081607C692B608320E232E00F
:100DC0002E193F0937FF02C02D5F3F4F35952795FC
:100DD00035952795298320E639E0201B310B37FF15
:100DE00002C02D5F3F4F35952795359527952A836E
:100DF0002CE0622F4FD6829FB001112430E020E01A
:100E0000AB01420F531FFA01EE0FFF1FE40FF51F56
:100E1000EE5DF64F908196FD16C02F5F3F4F2C3050
:100E2000310571F7813029F51092800082E08093BE
:100E300081001092850010928400B19A80916F0019
:100E4000826080936F00E8818E2F90E0FC01EE0FAE
:100E5000FF1FE80FF91FEE5DF64F808180648083ED
:100E60008881DF91CF911F910F91FF90EF90DF90DC
:100E70000895823061F41092900080939100109256
:100E800095001092940088BB80937100DCCF833072
:100E900069F41092A00082E08093A1001092A50056
:100EA0001092A40089BB80937200CDCF8111CBCF6B
:100EB0001092200182E0809321011092250110926E
:100EC00024018ABB80937300BECF20E639E040E264
:100ED00052E052CFDC01EC91E03390F511968C9109
:100EE000119728E830E0281B310987FD3395220F40
:100EF000331F220F331F6217730784F012968C91F1
:100F000028E532E0281B310987FD3395220F331F76
:100F1000220F331F621773070CF49B012250310913
:100F2000220F331F4FB7F8948E2F90E0FC01EE0F85
:100F3000FF1FE80FF91FEE5DF64F328321834FBF8D
:100F40000895AF92BF92CF92DF92EF92FF920F93EC
:100F50001F93CF93DF93EC01603282E078070CF0AF
:100F60003DC0653B710514F064EB70E0898148E891
:100F7000A42EB12CA81AB10887FDB394AA0CBB1CEF
:100F8000AA0CBB1C0B2C000CCC08DD0877FF02C0A0
:100F900070E060E0072E000C880B990B2A8108E5B1
:100FA00012E0021B110927FD1395000F111F000FFE
:100FB000111F012E000C220B330B3F932F931F9315
:100FC0000F9314EBE12EF12C00E010E020E030E074
:100FD000A90112D50F900F900F900F90CE01DF91C5
:100FE000CF911F910F91FF90EF90DF90CF90BF9026
:100FF000AF9070CF1F920F920FB60F9211242F93C4
:101000003F938F939F93AF93BF938091B309909138
:10101000B409A091B509B091B6093091B20923E0A5
:10102000230F2D3758F50196A11DB11D2093B2094C
:101030008093B3099093B409A093B509B093B6090E
:101040008091B7099091B809A091B909B091BA09F6
:101050000196A11DB11D8093B7099093B809A09383
:10106000B909B093BA09BF91AF919F918F913F9108
:101070002F910F900FBE0F901F90189526E8230F09
:101080000296A11DB11DD2CF789484B5826084BD33
:1010900084B5816084BD85B5826085BD85B581607C
:1010A00085BDEEE6F0E0808181608083E1E8F0E0DC
:1010B0001082808182608083808181608083E0E80B
:1010C000F0E0808181608083E1EBF0E080818460EA
:1010D0008083E0EBF0E0808181608083E1E9F0E0F3
:1010E000808182608083808181608083E0E9F0E09C
:1010F000808181608083E1EAF0E08081826080838A
:10110000808181608083E0EAF0E08081816080837B
:10111000E1E2F1E080818260808380818160808370
:10112000E0E2F1E0808181608083EAE7F0E08081A5
:1011300084608083808182608083808181608083FD
:101140008081806880831092C1000895815082312F
:1011500008F059C0E82FF0E08827EF54F74F8F4F81
:10116000E3C4D108D508C308C908CD080309D808C5
:10117000DE08E208E808EC08F008F608FA080309B7
:10118000FE0804090809809180008F778093800011
:101190000895809180008F7DF9CF80918000877FB6
:1011A000F5CF84B58F7784BD089584B58F7DFBCF4F
:1011B0008091B0008F778093B00008958091B00047
:1011C0008F7DF9CF809190008F7780939000089564
:1011D000809190008F7DF9CF80919000877FF5CF2F
:1011E0008091A0008F778093A00008958091A00047
:1011F0008F7DF9CF8091A000877FF5CF809120016E
:101200008F77809320010895809120018F7DF9CF01
:1012100080912001877FF5CFCF93DF9390E0FC0191
:10122000E65DFE4F249180599E4FFC0184918823F6
:10123000C9F090E0880F991FFC01E053FE4FA59183
:10124000B491FC01EA54FE4FC591D49161110DC0D7
:101250009FB7F8948C91209582238C9388812823C2
:1012600028839FBFDF91CF910895623051F49FB7DB
:10127000F8943C91822F809583238C93E8812E2BC8
:10128000EFCF8FB7F894EC912E2B2C938FBFEACF32
:101290001F93CF93DF93282F30E0F901EC51FF4FDC
:1012A0008491F901E65DFE4FD491F901E059FE4FBA
:1012B000C491CC23A1F0162F811148DFEC2FF0E070
:1012C000EE0FFF1FEA54FE4FA591B4918FB7F8942B
:1012D000EC91111108C0D095DE23DC938FBFDF9114
:1012E000CF911F910895DE2BF8CFFC01918D228DB7
:1012F000892F90E0805C9F4F821B91098F73992703
:101300000895FC01918D828D981731F0828DE80F40
:10131000F11D858D90E008958FEF9FEF0895FC01FA
:10132000918D828D981761F0A28DAE0FBF2FB11DE8
:101330005D968C91928D9F5F9F73928F90E0089540
:101340008FEF9FEF0895FC01538D448D252F30E0E2
:10135000842F90E0821B930B541710F0CF960895C2
:1013600001970895FC01A48DA80FB92FB11DA35AB0
:10137000BF4F2C91848D90E001968F739927848FB5
:10138000A689B7892C93A089B1898C9183708064D8
:101390008C93938D848D981306C00288F389E02D79
:1013A00080818F7D80830895CF93DF93EC01888DBA
:1013B0008823B1F0AA89BB89E889F9898C9185FDD8
:1013C00003C0808186FD0CC00FB607FCF7CF8C915F
:1013D00085FFF2CF808185FFEDCFCE01C3DFEACF5D
:1013E000DF91CF910895EF92FF920F931F93CF93C8
:1013F000DF93EC0181E0888F9B8D8C8D98131AC050
:10140000E889F989808185FF15C09FB7F894EE8936
:10141000FF896083E889F989808183708064808393
:101420009FBF81E090E0DF91CF911F910F91FF90DE
:10143000EF900895F62E0B8D10E00F5F1F4F0F7386
:101440001127E02E8C8D8E110BC00FB607FCFACF42
:10145000E889F989808185FFF5CFCE0183DFF2CF5E
:10146000EB8DEC0FFD2FF11DE35AFF4FF0829FB77C
:10147000F8940B8FEA89FB8980818062D0CFCF926C
:10148000DF92EF92FF921F93CF93DF93EC016A01FB
:101490007B01122FE889F98982E08083C11481EEF3
:1014A000D806E104F10499F060E079E08DE390E082
:1014B000A7019601FBD221503109410951095695E6
:1014C000479537952795211580E1380790F0E889F1
:1014D000F989108260E874E88EE190E0A701960136
:1014E000E5D2215031094109510956954795379563
:1014F0002795EC85FD853083EE85FF852083188E4A
:10150000EC89FD891083EA89FB8980818061808371
:10151000EA89FB89808188608083EA89FB898081F0
:1015200080688083EA89FB8980818F7D8083DF9159
:10153000CF911F91FF90EF90DF90CF9008951F9271
:101540000F920FB60F9211240BB60F922F938F9319
:101550009F93EF93FF93E091CB09F091CC098081A9
:10156000E091D109F091D20982FD1DC09081809156
:10157000D4098F5F8F732091D509821741F0E091D4
:10158000D409F0E0E554F64F958F8093D409FF918C
:10159000EF919F918F912F910F900BBE0F900FBEE7
:1015A0000F901F9018958081F2CF1F920F920FB667
:1015B0000F9211240BB60F922F933F934F935F938B
:1015C0006F937F938F939F93AF93BF93EF93FF930B
:1015D0008BEB99E0C7DEFF91EF91BF91AF919F91A7
:1015E0008F917F916F915F914F913F912F910F90CC
:1015F0000BBE0F900FBE0F901F901895EBEBF9E00C
:101600001382128288EE93E0A0E0B0E08483958399
:10161000A683B7838EED98E09183808385EC90E07C
:101620009587848784EC90E09787868780EC90E0AC
:10163000918B808B81EC90E0938B828B82EC90E09D
:10164000958B848B86EC90E0978B868B118E128E17
:10165000138E148E08951F920F920FB60F921124BD
:101660000BB60F922F938F939F93EF93FF93E0917D
:10167000680AF091690A8081E0916E0AF0916F0A20
:1016800082FD1DC090818091710A8F5F8F732091C0
:10169000720A821741F0E091710AF0E0E85AF54FC2
:1016A000958F8093710AFF91EF919F918F912F9168
:1016B0000F900BBE0F900FBE0F901F90189580815A
:1016C000F2CF1F920F920FB60F9211240BB60F920A
:1016D0002F933F934F935F936F937F938F939F933A
:1016E000AF93BF93EF93FF9388E59AE03BDEFF91C2
:1016F000EF91BF91AF919F918F917F916F915F918A
:101700004F913F912F910F900BBE0F900FBE0F90F6
:101710001F901895E8E5FAE01382128288EE93E0B4
:10172000A0E0B0E084839583A683B7838EED98E034
:10173000918380838DEC90E0958784878CEC90E09A
:101740009787868788EC90E0918B808B89EC90E07E
:10175000938B828B8AEC90E0958B848B8EEC90E05F
:10176000978B868B118E128E138E148E08951F9276
:101770000F920FB60F9211240BB60F922F938F93E7
:101780009F93EF93FF93E091050BF091060B8081FF
:10179000E0910B0BF0910C0B82FD1DC090818091AC
:1017A0000E0B8F5F8F7320910F0B821741F0E0912A
:1017B0000E0BF0E0EB50F54F958F80930E0BFF91E1
:1017C000EF919F918F912F910F900BBE0F900FBEB5
:1017D0000F901F9018958081F2CF1F920F920FB635
:1017E0000F9211240BB60F922F933F934F935F9359
:1017F0006F937F938F939F93AF93BF93EF93FF93D9
:1018000085EF9AE0AFDDFF91EF91BF91AF919F918E
:101810008F917F916F915F914F913F912F910F9099
:101820000BBE0F900FBE0F901F901895E5EFFAE0DA
:101830001382128288EE93E0A0E0B0E08483958367
:10184000A683B7838EED98E09183808385ED90E049
:101850009587848784ED90E09787868780ED90E078
:10186000918B808B81ED90E0938B828B82ED90E069
:10187000958B848B86ED90E0978B868B118E128EE4
:10188000138E148E08951F920F920FB60F9211248B
:101890000BB60F922F938F939F93EF93FF93E0914B
:1018A000A20BF091A30B8081E091A80BF091A90B02
:1018B00082FD1DC090818091AB0B8F5F8F73209153
:1018C000AC0B821741F0E091AB0BF0E0EE56F44F19
:1018D000958F8093AB0BFF91EF919F918F912F91FB
:1018E0000F900BBE0F900FBE0F901F901895808128
:1018F000F2CF1F920F920FB60F9211240BB60F92D8
:101900002F933F934F935F936F937F938F939F9307
:10191000AF93BF93EF93FF9382E99BE023DDFF91A9
:10192000EF91BF91AF919F918F917F916F915F9157
:101930004F913F912F910F900BBE0F900FBE0F90C4
:101940001F901895E2E9FBE01382128288EE93E083
:10195000A0E0B0E084839583A683B7838EED98E002
:101960009183808385E391E09587848784E391E088
:101970009787868780E391E0918B808B81E391E06C
:10198000938B828B82E391E0958B848B86E391E04D
:10199000978B868B118E128E138E148E0895AF92B4
:1019A000BF92CF92DF92EF92FF920F931F93CF934C
:1019B000DF936C017B018B01040F151FEB015E01AE
:1019C000AE18BF08C017D10759F06991D601ED9143
:1019D000FC910190F081E02DC6011995892B79F7D2
:1019E000C501DF91CF911F910F91FF90EF90DF9094
:1019F000CF90BF90AF9008954F925F926F927F9279
:101A0000AF92BF92CF92DF92EF92FF920F931F930C
:101A1000CF93DF93CDB7DEB729013A019B01AC012B
:101A200024193509460957098A899B89AC89BD89DA
:101A3000BC01CD016A197B098C099D091CD0A80144
:101A40009701241935094609570952D0CA01B9012D
:101A50006A0D7B1D8C1D9D1DDF91CF911F910F91F4
:101A6000FF90EF90DF90CF90BF90AF907F906F90FE
:101A70005F904F900895DB018F939F935DD0BF914E
:101A8000AF91A29F800D911DA39F900DB29F900DCD
:101A900011240895991B79E004C0991F961708F046
:101AA000961B881F7A95C9F780950895A1E21A2E92
:101AB000AA1BBB1BFD010DC0AA1FBB1FEE1FFF1FF2
:101AC000A217B307E407F50720F0A21BB30BE40B42
:101AD000F50B661F771F881F991F1A9469F7609589
:101AE0007095809590959B01AC01BD01CF01089543
:101AF000052E97FB16F400940FD057FD05D0D6DFC6
:101B000007FC02D046F408C05095409530952195C9
:101B10003F4F4F4F5F4F0895909580957095619519
:101B20007F4F8F4F9F4F0895EE0FFF1F881F8BBF72
:101B30000790F691E02D199409D0A59F900DB49FC0
:101B4000900DA49F800D911D11240895A29FB001B6
:101B5000B39FC001A39F700D811D1124911DB29FE1
:0E1B6000700D811D1124911D0895F894FFCF82
:101B6E005C005C005C005C005C005C005C005C0087
:101B7E005C005C005C005C005C005C005C005C0077
:101B8E005C005C005C005C005C005C005C005C0067
:101B9E005C005C005C005C005C005C005C005C0057
:101BAE005C005C005C005C005C005C005C005C0047
:101BBE005C005C005C005C005C005C005C005C0037
:101BCE005C005C005C005C005C005C005C005C0027
:101BDE005C005C005C005C005C005C005C005C0017
:101BEE005C005C005C005C005C005C005C005C0007
:101BFE005C00550055005500560056005600560024
:101C0E0057005700570058005800590059005A0005
:101C1E005A005B005B005C005C005D005D005D00D7
:101C2E005D005D005D005E005E005E005E005E00B9
:101C3E005E005D005C005A005900560055005500CC
:101C4E0054005400540054005400540054005400E6
:101C5E0054005400540054005400540055005500D4
:101C6E00550058005A005B005C005D005E005E008F
:101C7E005E005E005E005E005D005D005C005B006D
:101C8E005900580056005600560056005600560091
:101C9E005600560056005600560056005600670075
:101CAE006D007100740077007A007C007D007F006B
:101CBE007F008000800080008000800080007F0018
:101CCE007F007E007E007D007B007900760075002F
:101CDE00760079007D0080008100820083008500FF
:101CEE00870089008B008D008F0090008E008C0085
:101CFE008A008A00880086008400830082008100AA
:101D0E00800080007F007F007E007E007D007D00D1
:101D1E007B007A0078005A005A005A005A005A0086
:101D2E005A005A005A005A005A005A005A005A00D5
:101D3E007A0083008B00910096009B009E00A1000C
:101D4E00A300A500A500A500A500A500A500A5005F
:101D5E00A500A500A500A500A500A500A500A4004E
:101D6E00A300A600AA00B000B300B300B300B300F6
:101D7E00B300B300B300B300B300B300B300AF00C1
:101D8E00AA00A700A700A700A700A700A600A6000C
:101D9E00A600A500A500A500A500A500A500A5000C
:101DAE00A500A500A500A4005C005C005C005C0022
:101DBE005C005D005D005D005D005D005D005D002E
:101DCE005D006B0070007300760078007A007C0076
:101DDE007D007E007F007F007F007F007F007F0000
:101DEE007F007F007F0080008100820083008500DD
:101DFE008600870088008A008C008D008C008B0086
:101E0E00890088008500830081007F007E007D00B0
:101E1E007A0078007600760079007A007C007C00EB
:101E2E007D007D007E007E007F007F0080008000B0
:101E3E00810082008300840086005E005E005E00EA
:101E4E005D005D005D005D005C005C005C005B00A1
:101E5E005B005A005A0059005900580058005700AC
:101E6E0057005600560056005600560056005500B4
:101E7E0055005500550055005500560057005900A5
:101E8E005A005D005E005E005F005F005F005F0055
:101E9E005F005F005F005F005F005F005F005F003C
:101EAE005F005F005E005E005E005B005900580040
:101EBE005700560055005500550055005500550069
:101ECE0056005600570058005A005B005C005C003C
:101EDE005C005C005C005C005C005C005C005C0014
:101EEE005C005C005C005C005C005C005C005C0004
:101EFE005C005C005C005C005C005C005C005C00F4
:101F0E005C005C005C005C005C005C005C005C00E3
:101F1E005C005C005C005C005C005C005C005C00D3
:101F2E005C005C005C005C005C005C005C005C00C3
:101F3E005C005C005C005C005C005C005C005C00B3
:101F4E005C005C005C005C005C005C005C005C00A3
:101F5E005C005C005C005C005C005C005C005E0091
:101F6E005E005E005E005E005E005F005F005F0070
:101F7E006000600061006200620063006300640044
:101F8E006500650066006600670067006700670011
:101F9E00670067006600660065006400630062000B
:101FAE00610060005F005F005D005B00590057003C
:101FBE005700560055005500550055005500550068
:101FCE0056005600570058005A005C005E005E0036
:101FDE005F005F005F005F005F005F005F005F00FB
:101FEE005F005F005F005F005F005F005E005E00ED
:101FFE0061006100610061006100610062006200C9
:10200E0062006200620062006300570051004C00E3
:10201E00490046004300410040003F003E003E00A4
:10202E003D00390034003100300030002E002D000C
:10203E002B0029002A002D002F003100330035001F
:10204E003700380039003A003B003B003C003D00B1
:10205E003D003E003F004000410043004500480067
:10206E004700440041003D003A0039003800370077
:10207E003500330031002E002C002B002C002D00DB
:10208E002F005A005A005A005A005A005A005A009D
:10209E005A005A005A005A005A005A004500390098
:1020AE003000290024001F001C0019001700150025
:1020BE00150013000D0005000000000000000000D8
:1020CE00000000000000020009000C000C000D00D2
:1020DE000D000E000F001000100011001100110075
:1020EE001100110012001200120012001300150050
:1020FE001700140010000B00050000000000000087
:10210E0000000000000000000000000000000300BE
:10211E0007000B00520052005200520052005100B4
:10212E005100510051005100510050005000470025
:10213E0041003D003A0037003500330032003100D7
:10214E00300030002F002D002A0028002800290022
:10215E002A002C002E002F003100340036003400EF
:10216E0033003100300030002F002F002F002E00E2
:10217E002E002E002D002D002C002B002A002900F1
:10218E002800280027002500230020001F001F0024
:10219E00200022002300260028002A002C002E00FA
:1021AE0030003300350055005500550055005500E0
:1021BE005500540054005400530053005200510077
:1021CE005100500050004F004E004E004D004D008B
:1021DE004C004C004C004C004C004C004D004D008F
:1021EE004E004F0050005100520053005400540056
:1021FE00560058005A005C005C005D005E005E00F8
:10220E005E005E005E005E005D005D005C005B00D7
:10221E005900570055005500540054005400540006
:10222E005400540054005400540054005400540000
:10223E005400540055005500100900000000F30929
:0C224E00CF0CA309D40975098F09810980
:00000001FF
